:020000040800F2
:10000000100D0024F1490008D1480008D348000829
:10001000D5480008D7480008D9480008000000006B
:10002000000000000000000000000000DB480008A5
:10003000DD48000800000000DF480008E148000833
:10004000014A0008054A0008094A00080D4A00084C
:10005000114A0008154A0008194A00081D4A0008FC
:10006000214A0008254A0008294A0008E5480008F6
:100070002D4A0008314A0008354A0008394A00086C
:100080003D4A0008414A0008454A0008494A00081C
:100090004D4A0008514A0008554A0008594A0008CC
:1000A0005D4A0008614A0008654A0008694A00087C
:1000B000EB4800086D4A0008714A0008754A0008BC
:1000C000794A00087D4A0008814A0008854A0008EC
:1000D000894A00088D4A0008914A0008954A00089C
:1000E000994A00089D4A000800000000A14A000843
:1000F000A54A0008A94A0008AD4A0008B14A00080C
:10010000B54A0008B94A0008BD4A0008C14A0008BB
:10011000C54A0008C94A0008CD4A0008D14A00086B
:10012000D54A0008D94A0008DD4A0008E14A00081B
:10013000E54A0008E94A0008ED4A0008F14A0008CB
:10014000F54A0008F94A000800000000000000001D
:10015000FD4A0008014B0008054B0008094B000848
:100160000D4B0008114B0008154B0008194B0008F7
:100170001D4B0008214B0008254B00080000000023
:10018000294B00082D4B0008314B0008354B000867
:10019000394B00083D4B0008414B0008454B000817
:1001A000494B00084D4B0008514B0008554B0008C7
:1001B000594B00085D4B0008614B0008654B000877
:1001C000694B00086D4B0008714B0008754B000827
:1001D000794B00087D4B0008814B0008854B0008D7
:1001E000894B00088D4B0008914B0008954B000887
:1001F000994B00089D4B0008A14B0008A54B000837
:10020000A94B0008AD4B0008B14B0008B54B0008E6
:10021000B94B0008BD4B0008C14B0008C54B000896
:10022000C94B0008CD4B0008D14B0008000000006E
:10023000D54B0008D94B0008DD4B0008E14B000806
:10024000E54B0008E94B0008ED4B0008F14B0008B6
:10025000F54B0008F94B0008FD4B0008014C000865
:10026000054C0008094C00080D4C0008114C000812
:10027000154C0008194C00081D4C0008214C0008C2
:10028000254C0008294C00082D4C000800000000F7
:10029000314C0008354C00082DE9F84F044601F0B8
:1002A00045F9002C00F02E812168DFF86CB604F1CE
:1002B0003405DFF86866DFF86876DFF86886DFF80F
:1002C0006896DFF868A6594518BF51452AD04945B8
:1002D00018BF414526D0B94218BFB14222D000F024
:1002E0003FFF1CBFDFF8483699421BD000F034FFB7
:1002F0001CBFDFF84026914214D000F05FFB1CBF0A
:10030000DFF8342691420DD000F01EFF1CBFDFF84D
:100310002C36994206D000F013FF1CBFDFF82026D0
:10032000914245D1022300226B7059452A7018BFB3
:1003300051452AD0494518BF414526D0B94218BF7A
:10034000B14222D000F00CFF1CBFDFF8E435994227
:100350001BD000F001FF1CBFDFF8D825914214D05C
:1003600000F02CFB1CBFDFF8D02591420DD000F02F
:10037000EBFE1CBFDFF8C435994206D000F0E0FE6A
:100380001CBFDFF8BC25914242D10B688E465B084A
:100390005B00CEF80030009022681068C1073DD5A0
:1003A00001F0C4F8009A801A0628F5D32020A6E0B0
:1003B000DFF8900581421CBFDFF88C25914218D0F0
:1003C000DFF8883599421CBFDFF88405814210D0E0
:1003D000DFF8802591421CBFDFF87C35994208D0B8
:1003E000DFF8780581421CBFDFF8A825914240F074
:1003F0008580022100206970287023681B68A0682E
:1004000040286FF3101340F07F8043F010037FE02B
:100410000A680B46520852001A60BCE71368DFF8FE
:100420004015A0680B4021690343E06803436069FD
:100430000B43E1690343A0690343206A0B43034371
:10044000606A042803D1E16A206B0B430343DFF8A1
:1004500014C5DCF800E04FEA1E400004B0F1005F74
:1004600011D36068A0F12901062924BFA0F13F0142
:10047000042906D3A0F14701022924BF4F380428DC
:1004800001D243F48013136022685369606ADB0869
:1004900040EAC30304280ED1D4F828E0E06A4EEA0B
:1004A000030340B1A16969B9BEF1000F18BFBEF1E5
:1004B000020F1CD011D35361204600F029FF00F039
:1004C000C4F845E0B1F5005F0BD1BEF1030FF2D8DF
:1004D000DFE80EF00F0D0F03EDE7B0F1C07FEAD1BA
:1004E00007E0BEF1020F04D9BEF10301E3D1C00160
:1004F000E1D540210122296201209BE040202862B1
:1005000003216970012096E0802808BF43F48043EE
:10051000E168206962694FF0140C0843A169104337
:10052000226A0143E0690843216843EAD003DFF807
:10053000380443EA12130B602368C318B3FBFCFCB6
:100540004FEA8C00A862204600F0E2FE00F075F849
:100550002068584518BF50454CD0484518BF404505
:1005600048D0B84218BFB04244D0DFF800148842E7
:100570001CBFDFF8BC2390423CD0DFF8F433984234
:100580001CBFDFF8B013884234D000F005FA1CBF5E
:10059000DFF8A43398422DD000F0B8F91CBFDFF883
:1005A0009C23904226D000F0ADF91CBFDFF89013D9
:1005B00088421FD0DFF88C2390421CBFDFF88833BD
:1005C000984217D0DFF8841388421CBFDFF88023DD
:1005D00090420FD0DFF87C3398421CBFDFF87813CD
:1005E000884207D0DFF8742390421CBFDFF8A433A1
:1005F00098421BD1204600F0E3FEA068802804BF8B
:1006000000216160E96A20790860286B6A6B4260AA
:10061000606838B1092805D2204600F01FFF00F0BD
:100620001CF803E00021A963E96329640021012289
:10063000296200206A70BDE8F28F95F82820012118
:1006400002F01F0291404160704795F828203F2139
:1006500002F01F02914081607047A96B0020086082
:10066000E86B2A6C426070472DE9F84F04004FF0A8
:10067000000B08BF012005D004F1340630780128B2
:1006800008BF022000F02F81012737707078012801
:1006900040F022814FF0020C002786F801C0DFF8FD
:1006A00078A2376220689F4F00F06CF918BF484568
:1006B0002AD0404518BFB84226D0994DA8421CBF49
:1006C000964DA84220D0A94DA8421CBF984DA842E3
:1006D0001AD0A74DA8421CBF964DA84214D0DFF8EF
:1006E000D052A8421CBF944DA8420DD0DFF8C4528E
:1006F000A8421CBF914DA84206D0DFF8BC52A842C8
:100700001CBF8F4DA8420AD12068D0F800C04FEA24
:100710005C054FEA450C8646CEF800C006E0256829
:10072000286840084000AC46CCF80000204600F0A5
:100730001DFD2068504518BF484528D0404518BFCA
:10074000B84224D0764988421CBF744A90421ED0D9
:1007500000F014F91CBF7649884218D000F023F944
:100760001CBF744B984212D0DFF8441288421CBF61
:10077000714A90420BD000F0FDF81CBF6F498842CF
:1007800005D000F00CF91CBF6D4B98420DD12168CB
:100790000B200A6860F344020B461A60F06890B1BF
:1007A0002068016841F008010CE0216805200A6812
:1007B00060F343020B461A60F06820B120680168BC
:1007C00041F00401016020686949594A674BDFF82C
:1007D0004CC1DFF84CE1504518BF48453ED040457C
:1007E00018BFB8423AD0704518BF604536D098421D
:1007F00018BF904232D088421CBF4E4DA8422DD027
:10080000DFF8AC51A8421CBF4B4DA84226D0DFF800
:10081000A451A8421CBF494DA8421FD0DFF89851EF
:10082000A8421CBF464DA84218D0464DA8421CBF46
:10083000454DA84212D0454DA8421CBF444DA84288
:100840000CD0444DA8421CBF434DA84206D0434D96
:10085000A8421CBFDFF83C51A8420FD1F06A0568DE
:10086000ED0303D5056845F480750560B06B28B1CC
:1008700005462E46286840F4807030602068504558
:1008800018BF484522D0404518BFB8421ED0704519
:1008900018BF60451AD0984218BF904216D08842BF
:1008A0001CBF2449884211D000F076F81CBF224BAF
:1008B00098420BD000F02AF81CBF204A904205D085
:1008C00000F020F81CBF1E49884202D100F00DF84C
:1008D00008E000F010F805E04FF40063336286F89A
:1008E00000B0BB465846BDE8F28F0268034642F0AE
:1008F00001021A60704701460A46086840F001008C
:1009000010607047DFF8B03098427047DFF8A410ED
:10091000884270470000000010000240880002403A
:10092000700002405800024040000240280002408F
:10093000B8000240280402405804024088040240E3
:10094000B8040240085402581C540258305402584B
:1009500044540258585402586C5402588054025857
:100960003F8010FE0010005CF8ABFDA7A000024025
:1009700010040240DFF8543098427047DFF84830E6
:1009800098427047DFF84C80DFF84C905045704734
:100990000000000094540258054A90427047DFF866
:1009A000302090427047DFF81C20904270470000D2
:1009B0004004024070040240A0040240074B9942E8
:1009C0007047000010040240A00002407004024082
:1009D000A0040240400002402800024040040240BF
:1009E0002DE9FE4F0021DFF81829019113684FF41B
:1009F000165504460822DFF80CB9B3FBF5F502954D
:100A000004F13405686A01230090DFF8FC78DFF810
:100A1000FC88DFF890990146DFF88CA90E68016820
:100A2000D4F800C0DC4518BFD44531D0CC4518BF40
:100A3000C4452DD0BC451CBFDFF870E9F44527D074
:100A4000DFF878EAF4451CBFDFF864E9F4451FD00D
:100A5000DFF86CEAF4451CBFDFF858E9F44517D01D
:100A6000DFF860EAF4451CBFDFF84CE9F4450FD02D
:100A7000DFF854EAF4451CBFDFF840E9F44507D03D
:100A8000DFF848EAF4451CBFDFF844EAF44541D1F9
:100A900000F049FB02FA00F0064200F09580DC45C8
:100AA00018BFD44531D0CC4518BFC4452DD0BC4566
:100AB0001CBFDFF8F8188C4527D0DFF8000A844502
:100AC0001CBFDFF8EC0884451FD0DFF8F4198C4513
:100AD0001CBFDFF8E008844517D0DFF8E80984453B
:100AE0001CBFDFF8D4188C450FD0DFF8DC09844533
:100AF0001CBFDFF8C808844507D0DFF8D0198C4543
:100B00001CBFDFF8CC0984454AD1DCF8000000F0B6
:100B1000040049E0DFF82869B4451CBFDFF8246908
:100B2000B44518D0DFF82069B4451CBFDFF81C6954
:100B3000B44510D0DFF81869B4451CBFDFF814695C
:100B4000B44508D0DFF81069B4451CBFDFF818665B
:100B5000B44540F0E682DCF8006095F828C04FF01C
:100B6000040E0CF01F0C0EFA0CFE11EA0E0FCDF85D
:100B700000E000F050825FEA467E40F14C8200992E
:100B80004160300440F1FD81F10300F13C8269696C
:100B9000002900F0C682204603B0BDE8F04F0847A8
:100BA0006046006800F0080070B16046016821F0FE
:100BB0000401CCF8001000F0B6FA82400098826080
:100BC000296A41F00101296200F0ADFA26FA00F12C
:100BD000CA073DD52168594518BF51452ED0494512
:100BE00018BF41452AD0B9421CBFDFF8C027914247
:100BF00024D000F0B5FA1CBFDFF8B42791421DD015
:100C000000F0AAFA1CBFDFF8AC27914216D0DFF83B
:100C1000B42891421CBFDFF8A02791420ED000F00B
:100C200093FA1CBFDFF89427914207D000F088FAAE
:100C30001CBFDFF89C28914240F092804969090668
:100C400006D5834000988360296A41F00201296239
:100C500095F82800042200F01F0002FA00F0064276
:100C60003FD02168594518BF51452FD0494518BF7D
:100C700041452BD0B9421CBFDFF83027914225D027
:100C8000DFF8383899421CBFDFF8242791421DD085
:100C900000F062FA1CBFDFF81C37994216D0DFF86B
:100CA000242891421CBFDFF8102791420ED0DFF8B4
:100CB000183899421CBFDFF80427914206D000F093
:100CC0003FFA1CBFDFF8083899424BD1D1F800C079
:100CD0005FEA8C7205D500998860286A40F00400AC
:100CE000286295F82810102201F01F0102FA01F184
:100CF0000E4259D02068584518BF50452CD0484561
:100D000018BF404528D0B8421CBFDFF8A02690424B
:100D100022D0FFF733FE1CBFDFF8942690421BD091
:100D2000FFF741FE1CBFDFF88C36984214D0FFF766
:100D300033FE1CBFDFF8802690420DD0FFF71AFE6D
:100D40001CBFDFF87826904206D0FFF728FE1CBFB4
:100D5000DFF87C37984208D1006800F0080009E00D
:100D60000A6875E708460368BBE78446DCF80000BC
:100D700000F00400C0B100988160206801684A0357
:100D800007D5006801030BD5696969B1204688471A
:100D90000AE00168CA0503D4036823F0080303606E
:100DA000E96809B12046884795F82810202001F00D
:100DB0001F0100FA01F10E423BD02068584518BFD0
:100DC00050452DD0484518BF404529D0B8421CBFDA
:100DD000DFF8D825904223D0FFF7D0FD1CBFDFF805
:100DE000D065B0421CD0FFF7DEFD1CBFDFF8C43574
:100DF000984215D0DFF8CC66B0421CBFDFF8B825AA
:100E000090420DD0FFF7B6FD1CBFDFF8B065B042D1
:100E100006D0FFF7C4FD1CBFDFF8B436984203D1FB
:100E2000006800F0100003E00246106800F00200C5
:100E3000002847D00098816020686978042927D16C
:100E4000026822F0160202602068436923F08003E2
:100E50004361E968002904BF6869002804D020685C
:100E6000016821F00801016095F8282000993F20D1
:100E700002F01F0290408860012068700022E9693A
:100E80002A70002920D0204603B0BDE8F04F084763
:100E900001684A0307D5006801030FD4296989B1A5
:100EA000204688470EE00168CA0507D40368002180
:100EB00023F010030360012068702970A96809B14C
:100EC00020468847286A002800F02B81296AC80735
:100ED00056D504226A702068584518BF50452ED058
:100EE000484518BF40452AD0B8421CBFDFF8BC14A3
:100EF000884224D0DFF8C42590421CBFDFF8B0340C
:100F000098421CD000F018F91CBFDFF8A8249042CA
:100F100015D000F01DF91CBFDFF89C1488420ED0DC
:100F2000DFF8A42590421CBFDFF89034984206D029
:100F300000F0FEF81CBFDFF89825904217D120681A
:100F400003685B085B0001460B600298019A521C23
:100F500090420192216802D30A68D307F6D4086848
:100F6000C10747BF03226A7001236B7006E0206847
:100F700001684908490002461160E6E70020287030
:100F8000C8E0B0063FD42068584518BF50452ED061
:100F9000484518BF40452AD0B8421CBFDFF80C14A2
:100FA000884224D0DFF8142590421CBFDFF80034BB
:100FB00098421CD000F0C0F81CBFDFF8F823904224
:100FC00015D000F0C5F81CBFDFF8EC1388420ED036
:100FD000DFF8F42490421CBFDFF8E033984206D0DB
:100FE00000F0A6F81CBFDFF8E824904205D10368A2
:100FF000014623F008030B6005E002461346106823
:1010000020F004001860E968002918D0204603B0D9
:10101000BDE8F04F08474FF0020E0EFA0CFE11EA41
:101020000E0FCDF800E05DD05FEA867E5AD50099BC
:101030004160300409D5F1034DD42969002970D0ED
:10104000204603B0BDE8F04F0847B00643D42068FF
:10105000584518BF50452ED0484518BF40452AD0A6
:10106000B8421CBFDFF84413884224D0DFF84C2478
:1010700090421CBFDFF8383398421CD000F05CF877
:101080001CBFDFF83023904215D000F061F81CBF80
:10109000DFF8241388420ED0DFF82C2490421CBFC6
:1010A000DFF81833984206D000F042F81CBFDFF892
:1010B0002024904205D10368014623F014030B60FD
:1010C00005E002461346106820F00A00186001216E
:1010D000002069702870A96819B3204603B0BDE8E4
:1010E000F04F084702FA0CF211421AD0310718D516
:1010F0002268166826F00E06174601223E6095F813
:10110000281001F01F018B4043600120286200215C
:101110006A702970A96921B1204603B0BDE8F04F7B
:101120000847BDE8F78F95F8280000F01F007047CA
:10113000DFF8981388427047DFF8841388427047BD
:10114000DFF8882391427047DFF87C239142704793
:10115000DFF8703398427047DFF86423914270479C
:10116000DFF8582391427047945402582DE9F84F04
:101170000446DFF890A1A56DDFF830B2009526682F
:10118000DFF884C1DFF884E1DFF81882DFF8189215
:10119000564518BF4E4543D0464518BF76453FD00B
:1011A000664518BF5E453BD0DFF8100386421CBF82
:1011B0007F4FBE4234D0DFF8080386421CBF7D4813
:1011C00086422DD0DFF8FC72BE421CBF7A488642B0
:1011D00026D0DFF8F40286421CBF784FBE421FD0F3
:1011E000DFF8E80286421CBFDFF8E402864217D02F
:1011F000934FBE421CBF9348864211D0924886420C
:101200001CBF924FBE420BD0914886421CBF9148F2
:10121000864205D0904FBE421CBFAE4886425BD18D
:10122000676EA06E7860E06E10B1206F676F4760E8
:10123000564518BF4E4525D0464518BF764521D0A6
:10124000664518BF5E451DD09C4886421CBF584865
:10125000864217D09A4886421CBF5648864211D013
:10126000984886421CBF544886420BD09648864216
:101270001CBF5248864205D0944886421CBF944801
:10128000864215D194F85C00DDF800B03F2500F0EF
:101290001F008540CBF80850356825F4802535605F
:1012A0007360A068402827D0B160F260BDE8F18F7C
:1012B000634886421CBF6348864210D0624886421B
:1012C0001CBF624886420AD0614886421FBF6148FF
:1012D00086426148864202D07E488642E6D194F832
:1012E0005C00012700F01F0007FA00FCC5F804C0ED
:1012F0007360A368402BD7D1B260F160D6E70000DD
:101300000C0000241000024070000240580002400F
:10131000F0B50168704A91421CBF234B994229D015
:10132000204CA1421CBF6D4A914223D06C4B994284
:101330001CBF1E4CA1421DD0FFF712FF1CBF1C4B4F
:10134000994217D05E4CA1421CBF1A4A914211D05B
:10135000FFF734FB1CBF184CA1420BD0FFF7F4FE83
:101360001CBF164B994205D0584CA1421CBF584A8D
:10137000914211D101F0FF03890A103B1824B3FBFD
:10138000F4F20FF2A01502F007068902AF5D042AFD
:10139000C76503D3091D01E0090A090281650846F2
:1013A000F0BD0000400002402800024088000240DA
:1013B000B800024028040240580402408804024059
:1013C000F0B5046801221E4D2346AC421CBF1D4EE1
:1013D000B44211D01C4FBC421CBF1C4DAC420BD0C0
:1013E0001B4EB4421CBF1B4FBC4205D01A4DAC4231
:1013F0001CBF384EB4420DD104F0FF01083914234C
:10140000384DB1FBF3F1384B03EB810301F01F01C1
:101410008A4011E004F0FF0110391824B1FBF4F404
:101420003249CB18A92B38BF0834314B314D03EB6F
:10143000840304F01F04A240036645668266F0BD83
:10144000085402581C54025830540258445402584C
:10145000585402586C54025880540258017900299B
:1014600000D170470929F0B527D20268224B9A4271
:101470001CBF224DAA4211D0214EB2421CBF214BAB
:101480009A420BD0204DAA421CBF204EB24205D03A
:101490001F4FBA421CBF0F4DAA4204D11D4B1E4A1A
:1014A00003EB810403E01D4A02EB81041C4A012383
:1014B000491E8B40C46602674367F0BDA00002402E
:1014C000100402404004024070040240A0040240A4
:1014D000B8040240945402581000024058000240E0
:1014E000700002408058025800580258F0FBFDBFBF
:1014F0000008024080080240085402581C54025858
:101500003054025844540258585402586C540258EB
:1015100080540258FC58025840590258FC080240B6
:1015200040090240000610160006101601484068E7
:10153000704700BF000000242DE9F0470446002654
:101540002068B046DFF84857010122D5626E4AB1E3
:10155000B2F5801F0BD0B2F5001F15D0B2F5401FB9
:1015600009D014E0EB6943F40033EB6105E002219C
:1015700000F085FB064630000AD1296C606E21F42C
:1015800040110143296404E000F07CFBF2E70126EE
:10159000B0462068C1051CD5626D042A17D8DFE863
:1015A00002F0030E1205050000F05EFB30000FD1C3
:1015B000296C606DC90840EAC101296409E000F0A6
:1015C0005DFB0646F2E7002100F054FBF9E7012637
:1015D000B0462068810520D5A26D4AB1402A12D0BC
:1015E000802A14D0C02A18BFB2F5807F02D012E042
:1015F00000F03AFB30000FD1296CA06D21F4E071AE
:101600000143296409E000F039FB0646F2E70021B6
:1016100000F030FBF9E70126B046206804F18407AA
:10162000410523D53A6A62B1B2F5001F14D0B2F574
:10163000800F15D0B2F5C00F18BFB2F5000F02D061
:1016400012E000F011FB30000FD1A96C386A21F4D0
:1016500060010143A96409E000F010FB0646F2E7CF
:10166000002100F007FBF9E70126B04620680105DC
:1016700023D57A6A62B1B2F1807F14D0B2F1007FD3
:1016800015D0B2F1407F18BFB2F1806F02D012E0E6
:1016900000F0EAFA30000FD1A96C786A21F0E0611D
:1016A0000143A96409E000F0E9FA0646F2E70021E7
:1016B00000F0E0FAF9E70126B046206881011AD56A
:1016C000A26C42B1102A04D0202A0DD0302A02D0B8
:1016D0000FE000F0C9FA30000CD1E96BA06C21F0EA
:1016E00030010143E96306E0022100F0C8FA064632
:1016F000F1E70126B0462068C10423D5E26D62B14E
:10170000B2F5805F14D0B2F5005F15D0B2F5405F3E
:1017100018BFB2F5804F02D012E000F0A5FA3000F9
:101720000FD1296CE06D21F4E0410143296409E007
:1017300000F0A4FA0646F2E7002100F09BFAF9E770
:101740000126B0462068810422D5226E92B1B2F5FE
:10175000803F0BD0B2F5003F15D0B2F5403F1CBF23
:10176000B2F5802FB2F5A02F04D00FE0012100F0D8
:1017700086FA064630000AD1296C206E21F4E02159
:101780000143296404E000F074FAF2E70126B04650
:101790002068410422D5BA6A92B1B2F1805F0BD0C1
:1017A000B2F1005F15D0B2F1405F1CBFB2F1804FC3
:1017B000B2F1A04F04D00FE0012100F060FA06461C
:1017C00030000AD1A96CB86A21F0E0410143A96454
:1017D00004E000F04EFAF2E70126B046206801046A
:1017E0001AD5E26E42B1B2F1805F03D0B2F1005F70
:1017F0000BD00FE000F038FA30000CD1296CE06E0D
:1018000021F040510143296406E0012100F037FA3C
:101810000646F1E70126B0462068C10118D5626C82
:10182000032A13D8DFE802F004020D0400F01CFACA
:1018300030000CD1E96B606C890840EA8101E963F2
:1018400006E0022100F01BFA0646F1E70126B04649
:10185000206841023FD5DFF81099D9F8002042F402
:101860008072C9F80020FFF761FE8246D9F80000B7
:10187000C10506D4FFF75AFEA0EB0A006528F5D390
:1018800027E0300026D1286EF96A00F4407001F498
:10189000407188420BD0286E296E41F48031296650
:1018A0002A6E20F4407022F480322A662866F86A94
:1018B000B0F5807F2BD1FFF739FE8146286E810776
:1018C00025D4FFF733FEA0EB090041F289329042A4
:1018D000F4D30326B0462178CA0738D5A06F68B183
:1018E000082807D010282DD018281CBF2028282809
:1018F00004D02AE0012100F0C2F90646300025D1CB
:10190000696CA06F21F03801014369641FE0F86A37
:1019100000F44071B1F5407F09D12A68DFF858180A
:1019200001EA101122F47C520A432A6003E028687D
:1019300020F47C502860296EF86AC0F30B00014344
:101940002966C8E700F095F9D7E70126B046217867
:101950008A0719D5606F052814D8DFE800F007035F
:1019600010070707012100F08AF9064630000AD166
:10197000696C606FC90840EAC101696404E000F065
:1019800078F9F2E70126B04621784A0719D5F868B8
:10199000052814D8DFE800F0070310070707012126
:1019A00000F06DF9064630000AD1A96CF868C90844
:1019B00040EAC101A96404E000F05BF9F2E7012606
:1019C000B04621788A0621D5B86888B1B0F1805F29
:1019D0000BD0B0F1005F14D0B0F1405F1CBFB0F18C
:1019E000804FB0F1A04F03D00EE000F047F906465B
:1019F00030000AD1696CB86821F0E04101436964A4
:101A000004E000F03FF9F2E70126B04621784A06EB
:101A100021D5786988B1B0F5806F0BD0B0F5006F33
:101A200014D0B0F5406F1CBFB0F5805FB0F5A05F7B
:101A300003D00EE000F022F9064630000AD1A96C6E
:101A4000786921F4E0510143A96404E000F01AF937
:101A5000F2E70126B04621780A0621D5B86988B197
:101A6000B0F5005F0BD0B0F5804F14D0B0F5C04F8B
:101A70001CBFB0F5004FB0F5204F03D00EE000F0D2
:101A8000FDF8064630000AD1A96CB86921F460411E
:101A90000143A96404E000F0F5F8F2E70126B0463E
:101AA00021780A0710D5D4F88000B0F5805F04D102
:101AB00000F0E8F808B14FF00108696CD4F8800034
:101AC00021F44051014369642178CA060ED5386972
:101AD000B0F5807F04D100F0D5F808B14FF00108CF
:101AE000A96C386921F440710143A96421680A0393
:101AF00019D5F86930B1B0F5803F0FD0B0F5003F8F
:101B000003D00EE000F0BAF8064630000AD1A96C06
:101B1000F86921F440310143A96404E000F0B2F80F
:101B2000F2E70126B04621684A031BD53868B0F5B4
:101B3000801F06D0B0F5001F0ED0B0F5401F02D0B8
:101B40000EE000F08CF830000BD1696C386821F49D
:101B500040110143696405E000F08BF80646F2E7A6
:101B60000126B0462168CA0317D5E06C18B1B0F55C
:101B7000803F0BD00FE000F072F830000CD1E96B21
:101B8000E06C21F480310143E96306E0022100F0BA
:101B900076F80646F1E70126B04621688A0004D5AA
:101BA00000F070F808B14FF0010821688A0318D5D9
:101BB000E06F58B1B0F5807F06D0B0F5007F18BF58
:101BC000B0F5407F02D00AE000F049F8300007D1BC
:101BD000696CE06F21F440710143696401E0012602
:101BE000B0462268D00205D5296C206F21F0004153
:101BF000014329642168CA0005D52B68386B23F49A
:101C0000804303432B6021688A0205D52B6CA06EAC
:101C100023F0807303432B6421684A0007D52B68A7
:101C200023F400432B602968786B01432960226804
:101C3000002A05D5EB6B206D23F040530343EB6383
:101C400021680A0205D56B6C786823F440030343CE
:101C50006B645FEA080018BF0120BDE8F087E969FE
:101C600041F40031E9617047E86940F40030E8610F
:101C70007047012104F1240000F0D8BA0021201D92
:101C800000F07EBA022104F1240000F0CFBA000077
:101C90001044025878B50146B1F5807F89B0DFF86D
:101CA0009406DFF89426DFF89436DFF8944612D1D4
:101CB000216D01F00701042950D8DFE811F0C000C0
:101CC0006E0050007F00050000F021F92FD509B10A
:101CD00000F09DB897E0B1F5007F13D1216D11F4AC
:101CE000E0714CD0402958D0802938D0C02965D027
:101CF000B1F5807F32D100F00AF918D509B100F0B2
:101D000086B880E0B1F5806F15D1A16D11F4600146
:101D100035D0B1F5001F40D0B1F5800F1FD0B1F51F
:101D2000C00F4BD0B1F5000F18D100F0F0F86ED510
:101D300000296CD167E0B1F5006F1AD1A16D11F0E7
:101D4000E0611CD0B1F1807F27D0B1F1007F06D0D7
:101D5000B1F1407F32D0B1F1806F04D0D4E020687F
:101D6000810021D4D0E000F0D2F850D500294ED126
:101D700049E0B1F5805F24D1216D11F4E0415ED0DE
:101D8000B1F5805F09D0B1F5005F0AD0B1F5405FD1
:101D900014D0B1F5804F0CD0B6E02068010121D4F9
:101DA000B2E022689100FBD5684600F0F1F8009897
:101DB000ABE000F0ACF82AD549BB24E0DFF884059D
:101DC000A3E0B1F5002F2FD1A16D11F4403106D061
:101DD000B1F5803F0BD0B1F5003F10D094E0206802
:101DE0000101FBD503A800F0A7F803988DE0206857
:101DF0008100F3D5684600F0CBF8029885E000F04A
:101E000086F804D519B92168C1F3C1014FE02368F0
:101E1000DD0502D5B1F1805F4FD02268930373D501
:101E2000B1F1005F71D06FE0B1F5803F13D1E06C8C
:101E300010F4803003D0B0F5803F04D064E0206817
:101E4000810154D460E0206801015DD503A800F051
:101E500073F8059859E0B1F5804F33D1A16D11F0B9
:101E6000E0410FD0B1F1805F0FD0B1F1005F10D031
:101E7000B1F1405F15D0B1F1804F1BD0B1F1A04F4F
:101E80001DD041E000F049F83FE02068010136D460
:101E90003AE02068810037D5684600F079F801986B
:101EA00033E0206841072FD52268C2F3C10123FA2D
:101EB00001F02AE02068C10526D5104625E02268F9
:101EC00091030FE0B1F5004F1ED1216D11F040518B
:101ED00006D0B1F1805F07D0B1F1005F0CD013E004
:101EE00021688A0311D40FE0206881010CD506A86F
:101EF00000F004F9079808E02068010104D503A860
:101F000000F01AF8049800E000200AB070BDE16CFF
:101F100025686E0701F04051704780B500F09BFBCB
:101F2000DFF82424DFF824141368C3F30212895C59
:101F300001F01F01C84002BD30B500F082F8C2F3C5
:101F40000015DA6BC1F3053100F088F81DD000F000
:101F50007EF802D0022C06D008E000F0B5F8996BAC
:101F600000F04CF807E09FED7F2A01E09FED7F2A0B
:101F7000996B00F053F8996B00F095F8996B00F0AD
:101F800083F8996B00F073F801E000F031F82BE072
:101F900030B500F056F8C2F300255A6CC1F3055174
:101FA00000F05CF81DD000F052F802D0022C06D0F0
:101FB00008E000F089F8196C00F020F807E09FEDC8
:101FC000692A01E09FED692A196C00F027F8196C65
:101FD00000F069F8196C00F057F8196C00F047F838
:101FE00001E000F005F800BF80ED020A30BD0000FE
:101FF00000229FED5F0A026042607047F7EE001A10
:10200000C1F3080101EE101AB8EE411A31EE000AD0
:1020100070EE211A20EEA10A70470000DFED551A7C
:10202000C2EE200AC1F3080101EE101AB8EE411AFF
:1020300000EE211AB7EE000A31EE000A20EE800A07
:102040007047DFF8FC329C6A996ADA6A704714F0CC
:10205000030400EE901AF8EE600A7047C2F3CC0257
:102060005543002900EE105AB8EE400A7047C1F3FC
:10207000066100EE901AF8EE600A70EE810A80EEBA
:10208000200ABCEEC00A7047C1F3064100EE901A68
:10209000F8EE600A70EE810AC0EE200AFCEEE00A5B
:1020A000C0ED010A7047B7EE001AC1F3462100EEF9
:1020B000901AF8EE600A70EE810AC0EE200AFCEE7B
:1020C000E00AC0ED000A704719689FED2A1A20EE59
:1020D000010A8A060CD51968DFF86042C1F3C10114
:1020E000CC4001EE104AB8EE411AC1EE200A70470A
:1020F0009FED222AC2EE200A7047000030B5DFF8BB
:1021000040329C6A996ADD6A5A6B05F00105C1F399
:102110000511FFF7A3FF21D0FFF799FF03D0022C91
:102120000AD006D30BE0FFF7CFFF196BFFF766FF6E
:102130000AE09FED0E2A04E09FED0A2A01E09FEDE0
:102140000F2A196BFFF76AFF196BFFF7ACFF196BCA
:10215000FFF79AFF196BFFF78AFF01E0FFF748FFCF
:1021600042E7000020BCBE4B004802580024744ADD
:102170000000000000000039CFFFFF000024744C75
:10218000F8B500F0CEF801D10120F2BD286820F0AA
:10219000806000F0BFF807462968080106D5FFF700
:1021A000C5F9C01B0328F7D30320F2BDA86A316824
:1021B00020F47C3040EA013000F094F8A863E96A2A
:1021C000706921F0C00100F0A8F8B06921F0200189
:1021D00000F0A3F821F01001E962E86B00F07CF850
:1021E000E863E86A40F01000E8621CB9E86A40F46D
:1021F000002004E0012C04D1E86A40F48010E86279
:1022000003E0E96A41F40011E962286840F0806067
:1022100000F080F804462968080105D4FFF786F924
:10222000001B0328F7D3BFE70020F2BDF8B500F08C
:1022300078F801D10120F2BD286820F0805000F02C
:1022400069F807462968880006D5FFF76FF9C01BB3
:102250000328F7D30320F2BDA86A316820F07C7010
:1022600040EA015000F03EF82864E96A706921F400
:10227000406100F052F8B06921F4007100F04DF8AF
:1022800021F48071E962686C00F026F86864E86AFD
:1022900040F48070E8621CB9E86A40F4800004E011
:1022A000012C04D1E86A40F40000E86203E0E96A26
:1022B00041F08071E962286840F0805000F02AF80F
:1022C00004462968880005D4FFF730F9001B03286D
:1022D000F7D3BFE70020F2BDF1696FF3CF0040EA0A
:1022E000C1007047A862B1687068F268491E49026F
:1022F000401EC0F30800521E01F47E411204084340
:10230000316902F4FE021043491E090601F0FE4144
:10231000084370472860FFF709B90143E962E96A99
:1023200070470646064DA86A0C4600F003000328D5
:102330007047000040787D0100093D000090D00307
:10234000004402580080BB0020440258884800081E
:102350002DE9F0410400884656D0DFF83C63306830
:1023600000F00F00404502D200F0EBF87AD120785F
:10237000DFF82853410706D52069AA6902F07002E8
:10238000824200F0D7F82078010706D56069EA6933
:1023900002F07002824200F0C6F82078C10606D52D
:1023A000A069EA6902F4E062824200F0B5F82078A0
:1023B000810606D5E0692A6A02F07002824200F0C6
:1023C000A4F82078810706D5E068AA6902F00F0218
:1023D000824200F093F82078C10731D5AA69A0683D
:1023E00022F470620243AA616068022802D129685F
:1023F0008A0308E0032802D129688A0103E0012842
:1024000003D12968CA0503D42CE02B68590729D5C4
:102410002A69D20840EAC2002861FFF787F8074618
:102420002869616800F03800B0EBC10F08D0FFF7F1
:102430007DF8C01B41F289329042F1D303205BE06A
:102440002078810706D5E068AA6902F00F02904261
:1024500000F054F8306800F00F00804504D200F01E
:1024600070F801D0012047E02078410706D52069A7
:10247000AA6902F07002904200F05CF8207801072F
:1024800006D56069EA6902F07002904200F04BF8EC
:102490002078C10606D5A069EA6902F4E06290429C
:1024A00000F03AF82078810606D5E0692A6A02F041
:1024B0007002904200F029F800F04EF8AA69DFF8A7
:1024C000F011C2F303228B5CAC69DFF8D45104F045
:1024D0000F04095D03F01F03D840DFF8C83101F095
:1024E0001F0120FA01F21A602860DFF8C0010068BD
:1024F000BDE8F04100F0E4B8BDE8F08104D2A9697C
:10250000090940EA0110A861704704D2296A21F044
:10251000700108432862704704D2E96921F4E06140
:102520000843E861704704D2E96921F0700108436B
:10253000E861704704D2A96921F070010843A861DD
:1025400070473168090948EA01113160326802F0C8
:102550000F0242457047000030B5504B5248196990
:1025600011F0380104D010290AD018290AD069E0E6
:102570001A68940667D51968C1F3C101C84030BD17
:102580004C4830BD9C6A996ADD6A5A6B05F00105BA
:10259000C1F30511C2F3CC025543002900EE105AD5
:1025A000B8EE400A4CD014F0030400EE901AF8EE96
:1025B000600A02D0022C20D022E019689FED321A66
:1025C00020EE010A8A0608D51968C1F3C101C84086
:1025D00000F03CF8C1EE200A03E09FED2C2AC2EE89
:1025E000200A186BF7EE001A00F02EF831EE000A00
:1025F00070EE211A20EEA10A13E09FED252A01E0DA
:102600009FED242A186BDFED201AC2EE200A00F09D
:102610001BF800EE211AB7EE000A31EE000A20EE98
:10262000800A186BC0F34620401C00EE900AF8EEBA
:10263000600A80EE200ABCEEC00A10EE100A30BD1F
:10264000002030BD1C4830BDC0F3080001EE100A68
:10265000B8EE411A704710B5FFF77EFF1749144BCB
:102660000A6809680E4CC2F303229A5C01F00F015C
:1026700002F01F02D0402060595C0A4A01F01F019D
:10268000C840106010BD0000000000390024744CE8
:1026900020BCBE4B0024744A002000520044025863
:1026A0000C000024100000240090D0030800002437
:1026B0008848000840787D0100093D001844025810
:1026C00038B504460D4D2878A8B10D4A4FF47A71FB
:1026D0001368B1FBF0F0B3FBF0F000F056F850B91E
:1026E000102C08D2002221464FF0FF3000F024F8D1
:1026F000AC60002032BD012032BD00BF00000024CC
:102700000C0000240901020002D4294881547047BA
:10271000284B02F00F021A4402F8041C7047264BA3
:102720004FF6FF021968000200F4E0601140084310
:10273000224908431860704770B51F4B1C68C4F3EA
:1027400002230124C3F10705052D2EBF0F2504FA2E
:1027500005F56D1E1E1D072E34BF0023DB1E29400C
:10276000994004FA03F35B1E1A401143BDE8704020
:10277000C8E70000010007D4012200F01F018A40D1
:102780000F4B400943F820207047401EB0F1807F76
:1027900010B501D3012010BD0A490B4A4860F02052
:1027A000107000238B6007240C60002010BD000017
:1027B00000E400E018ED00E00CED00E00000FA0598
:1027C00000E100E010E000E023ED00E0C06800F46C
:1027D0004060401E8041C00F7047CB0D143003F0A5
:1027E0000403181830B5090D046801F01F0107250E
:1027F0008D4002FA01F1AC432143016030BDF8B5D0
:1028000004460020002500900CB90120F2BD04F11F
:102810003806F06928B9204600F0D8FC0021316262
:10282000317621688868820004D58B68DFF8C002A1
:1028300003408B6021688868C20016D48B68DFF87B
:10284000B402034043F080538B60DFF8AC120A6897
:10285000DFF8A832B2FBF3F35B1C009302E00099AF
:10286000491E009100980028F9D121688868C000AD
:1028700008D4F269012542F01002F261306A40F09A
:10288000010030628868F269D30600D4400700F185
:10289000AA80F26922F4807242F00202F261886832
:1028A000C00723D4DFF85832DFF85822994218BF06
:1028B000914208D1DFF85072DFF850C23868DCF876
:1028C0000070384302E0DFF84802006810F00100B1
:1028D0000CD1994216BF9142DFF83812DFF8381256
:1028E0000A68606822F47C1202430A6000F020FD4E
:1028F00041F2040188420CD3A068102809D1617DFF
:10290000226B207F42EA413242EA004242F01C023E
:1029100008E0617D226BA06842EA4132217F0243D8
:1029200042EA0142207F012803D1216A491E42EA7E
:102930004142606A20B1A16A00F4787002430A4300
:102940002168DFF8D801CB6803401A43CA602268C7
:1029500091689068490730D400072ED4D368277D4A
:10296000DFF8BC11E06A0B4043EA87330343D360CE
:102970003178012912D12368DFF8A8011F69716835
:102980000740B2683069491E47EA0147F1681743BA
:102990000F43074347F001071F6104E02068016906
:1029A00049084900016121680A69606B22F07042A0
:1029B000024320460A6100F015FBE1682068012906
:1029C00007D1026BA1691209491E41EA0212026392
:1029D00003E0016B090909010163F169012060F35A
:1029E0000101F16104E0F069012540F01000F0619F
:1029F0002846F2BD0C688068400704F01F04704749
:102A00002DE9F84305460E462868DFF8F410914694
:102A1000DFF8F080884216BF4045DFF8F810DFF895
:102A2000F810FFF7E7FF57D405F15007397801296F
:102A300052D00120002C38701CBF052C092C48D125
:102A4000284600F02AFA010040D17968DFF8EC044A
:102A5000014041F4807179602A68424500D11CB977
:102A6000786820F4801078607968C80404D5BA6862
:102A700022F00602BA6001E00020B860EA6CDFF8DC
:102A8000C014DFF8C004D163E96CDFF8BC2408642B
:102A9000E86C1C21C2642B68002219604B463A7016
:102AA0002868446844F0100444602968E86ACA68E9
:102AB000920840EA82003246C860286800F140016E
:102AC000E86CFDF7D1FD00F00AF806E000223A704C
:102AD00003E00021397000E00220BDE8F2832A689B
:102AE000044993680B4043F004039360704700006F
:102AF000C0FFFF5FC0FFFF7F0C000024400D0300FC
:102B0000002002400021024008200240082102402B
:102B100008600258082302400863025803C0F0FF0F
:102B2000FCBFFFFF1EF800FC2DE9FC4180460020A1
:102B3000009008F1500632780025012A08BF0220D3
:102B400000F08C8101203070D8F8000082685207B4
:102B500000F17C810F4639680B030EBFC1F384611D
:102B600091FAA1F1B1FA81F1C269012401F01F01CA
:102B700004FA01F11143C1617968D8F8002038687E
:102B80008B0903F00C0301F01F0130329A18D2F8C0
:102B900000C01F238B40C0F3846000FA01F12CEACF
:102BA000030319431160D8F8000082688168520756
:102BB00058D40B0756D4BA683968FFF70EFE786907
:102BC000D8F80010DFF830251368CA6803F07043A6
:102BD000B3F1805F05D19208530003F00E039840D3
:102BE0000FE0D30607D4D1F80CC04FEA9C035A007B
:102BF00002F00E0204E0CB689B085A0002F00802C3
:102C000090403A693B68042A2DD0603103F0F843C4
:102C100001EB82010A6802F0004210431843086089
:102C2000787E01280CBF4FF000400020D8F800103B
:102C30003A69603101EB82010B6823F000431843CD
:102C40000860387E01280CBF4FF400600020D8F8DF
:102C500000203969136901F01F01884023F4F04313
:102C60001843106127E0086E00F0F840B0EB836F66
:102C700003D10A6E22F000420A66D8F80000416EC5
:102C800000F0F5F803D1416E21F000414166D8F81B
:102C90000000816E00F0EBF803D1816E21F000415D
:102CA0008166D8F80000C16E00F0E1F803D1C16E72
:102CB00021F00041C166D8F800108868C00700F113
:102CC000CA80FA683B68D1F8C0C0DFF830E402F08F
:102CD00018022EFA02F2C3F3130013402CEA00008C
:102CE0000343C1F8C030F868DFF8141488424CD1AF
:102CF000386802030EBFC0F3846190FAA0F1B1FA04
:102D000081F1491C01F01F010A291BD2010306D1E0
:102D1000C0F38461C0F38462C0F3846001E000F01A
:102D20009FF8401C491C521C00F01F00890602F04D
:102D30001F0200EB400001F0F84194400C4344EACC
:102D400000511DE0010306D1C0F38462C0F3846129
:102D5000C0F3846001E000F083F8401C00F01F0025
:102D6000521C491C0A38920601F01F0100EB40007A
:102D700002F0F8428C40144344EA005444F00071DD
:102D8000BA68D8F80000FFF728FD3968002962D535
:102D9000D8F80020DFF86C73DFF86C33DFF86C03D1
:102DA000BA4216BF8242DFF868431C462468BA4222
:102DB00004F0E07418BF824200F05FF841D1DFF800
:102DC0005473DFF85403B9421CD1210243D4824228
:102DD00041D11868DFF8442320F0E070044344F444
:102DE00000041C601168DFF83833B1FBF3F35B1C9F
:102DF0005B000093009800281EBF0099491E0091B7
:102E0000F8D128E0DFF81C73B9420AD1E10122D4DD
:102E1000824220D1186820F0E070044344F08074AE
:102E20000DE0DFF80473B94215D1610213D4824278
:102E300011D1186820F0E070044344F480041C6051
:102E400009E0716841F02001716003E0706840F0B2
:102E5000200070600125002128463170BDE8F68110
:102E600090FAA0F0B0FA80F10A46084670473A6836
:102E700001F0F841B1EB826F704707D1DFF8AC0287
:102E8000DFF8AC7200683F68384302E0DFF8A40264
:102E9000006810F001007047000070B5044621681A
:102EA0008868C20743D488686FF39E1040B1616D93
:102EB00041F010016165A06D40F00100A0652DE0BA
:102EC00088689D4D284040F001008860FEF72EFB89
:102ED000064620688B4A8E49904221D108682168B5
:102EE0000B68DA0723D408468068C10705D4206838
:102EF00082682A4042F001028260FEF717FB801BC5
:102F00000328ECD320680168CA07E8D4606D40F05C
:102F100010006065A16D41F00101A165012070BD47
:102F20007A4A904205D1086810F01F0FD7D00020D0
:102F300070BD75480168D2E700000000FEF1FFFF98
:102F40004D2F0008C92F0008CF2F000810B5846B43
:102F5000616D11F0500F2AD1606D40F40070606512
:102F600021680A68130708460DD5FFF72FFCC8B182
:102F70002168C868820415D4616D21F4807161658F
:102F8000606DC10409E0C16811F0030F0AD1606DE2
:102F900020F480706065616DC80403D4626D42F0F6
:102FA000010262652046BDE8104000F085B9616D00
:102FB000CA0604D52046BDE8104000F0C7B9E16C50
:102FC000CA6CBDE810401047806B00F0C0B9806B40
:102FD000416D41F040014165826D42F0040282651D
:102FE00000F0B4B938B504464649206888421CBF91
:102FF000464A904230D1464B1D6815F4403F30D1CF
:103000004FF40020FEF746FE05466068B0F5802FBD
:1030100018BFB0F5002F1CD0B0F5402F18BFB0F589
:10302000801F16D0B0F5A01F18BFB0F5C01F10D07C
:10303000B0F5E01F28D0B0F5001F27D0B0F5101F65
:1030400026D0B0F5201F25D0B0F5301F08BF2D0ABF
:1030500021E0800C400014E02B48016811F4403F4F
:10306000CED0FFF7F8FA05466068B0F5803F18BF8C
:10307000B0F5003F04D0B0F5403F08BFAD080AE00E
:10308000000CB5FBF0F506E02D0904E06D0902E047
:10309000AD0900E0ED0900F04BF941F2040188426E
:1030A0000BD2264A2068954203D3816841F480718F
:1030B00020E0826822F4807217E06D0820498D427A
:1030C000206803D2826822F440720EE01D498D42CE
:1030D00004D28168012262F309210BE01A4A954269
:1030E00005D28268022161F30922826031BD8168C4
:1030F00041F44071816031BD0010005CFFFF0F00A2
:103100000000FF47002002400863025800210240EF
:1031100008230240000084CB006002580C00002409
:10312000400D0300000052C70000B8CF0820024045
:103130000821024008600258C0FFFF7F012D3101C5
:10314000115E5F0021BCBE0041787D0118B587B0DB
:103150001C220021684600F0FBF801204F4C504A29
:103160006075A0614FF48C602260002160624FF4B2
:103170008062A1604FF48050E160082321752177BF
:103180000321A2620022206320462361E162626380
:1031900084F83820FFF733FB08B100F09FF941496C
:1031A0000622009140F2FF71019200230391042254
:1031B000029369460492204605938DF81930FFF773
:1031C000B3FC08B100F08AF908B010BD78B5B5B00D
:1031D00004461422002101A800F0BAF8BC22002104
:1031E00006A800F0B5F821682D4A914253D18121FB
:1031F000022208914FF40023099220250A924021CF
:103200000B920022069306A807950C910D920E9240
:103210002E92FEF791F908B100F060F922484FF4C0
:1032200080750168214E41F080710160026802F0F2
:10323000807200920099036843F0200303600268E3
:103240001B4802F020020092009903220195002100
:103250000292039101A900F043F9164873213060EE
:103260004FF480600022306171604FF44030B260F2
:1032700000234FF4006130624FF40052F36071613B
:103280003046B261F5617362FDF706F808B100F0EF
:1032900025F9E664B46336B070BD00005C08002414
:1032A000006002588000501DE0440258E4070024EA
:1032B000001402581000024070470EE00268436894
:1032C000024408305FEAC37C44BF4B445B1E52F8A3
:1032D00004CB43F804CB091FF9D150F8041B002993
:1032E000ECD1704738B50320DFF84C50FFF717FAE0
:1032F000FFF732F91149124A0B68C3F30323D45C78
:10330000096801F00F01525C04F01F04E0400D4C0D
:1033100002F01F0220FA02F3236028600020FFF76A
:10332000CFF908B1012032BD00F0ECF9002032BD28
:1033300005480068000C70470C000024184402582F
:1033400088480008100000240010005C7047704797
:1033500010B5044610460A460146204600F0E2F940
:10336000204610BD38B54FF6FF742046534D2968EE
:103370000A0403D50146481E0029F8DC002848BF8E
:1033800000F0ACF8FFF7AEFF00F036F84C480168EB
:1033900041F000710160006800F000700090009939
:1033A000002000F0F3F90021002000F0F9F928686E
:1033B000010403D42046441E0028F8DC002C48BF3A
:1033C00000F08CF800F0F8F900F02AFAFFF7BEFEE2
:1033D00000F03EFA3B4C204600F0BEFA04212046A5
:1033E00000F038FB4FF47A7237493848FFF708FB92
:1033F000012000F0C9FEFBE780B59CB04C22002103
:1034000009A8FFF7A5FF2022002101A8FFF7A0FFD0
:10341000042000F0CDFE002000902D48016841F40A
:103420004041016002682B4902F4404200920B685F
:1034300043F001030B60096801F001010091009A5B
:1034400001688B04FCD524480221026801239208FC
:103450009200026040220D920022099109A8129167
:10346000042113923C2214910221159204221691F8
:103470000021179218920C220C9319921A911B9109
:1034800000F0D2FE08B100F029F83F21032201919B
:1034900008210292402204914021059200230691C6
:1034A0004FF4806208910421039301A80792FEF76C
:1034B0004FFF08B100F012F81DB000BD00440258E3
:1034C000E0440258C0080024140000245C080024D2
:1034D000184802582C0400582844025872B6FEE7D7
:1034E0002DE9F84F4FF00009DFF8E4214FF0B04329
:1034F000DFF8E08105460E463BE0DFF8DC41A542FF
:1035000014BF0A2409248C4044EA0E04DFF8CC11CD
:1035100041F82C40D3F800C07468C14301EA0C0C98
:10352000E40248BF40EA0C0CC3F800C0D3F804C062
:10353000746801EA0C0CA40248BF40EA0C0CC3F802
:1035400004C0D2F804C0746801EA0C0CA40348BF9C
:1035500040EA0C0CC2F804C0D2F800C001EA0C0C1E
:103560007168C90348BF40EA0C0CC2F800C009F1F9
:103570000109316831FA09F000F0A780012404FA4A
:1035800009F414EA0100F2D04FEA490C032101FAD0
:103590000CF16FEA010E716801F00307012F1CBFE7
:1035A00001F00301022911D1A968F7680EEA0101AF
:1035B00007FA0CF73943A960696821EA04047168C5
:1035C000C1F3001101FA09F10C436C6034794FEA40
:1035D000890104F00304032C21D0EC68B7680EEADB
:1035E000040407FA0CF73C43EC60347904F003045C
:1035F000022C14D14FEAD9074FF00F0B05EB8704CB
:1036000001F01C070BFA07FBD4F820A02AEA0B0AEA
:10361000D6F810B00BFA07F747EA0A0727622C68BA
:103620000EEA0407347904F0030404FA0CF444EAC3
:10363000070CC5F800C0746814F4403F97D0D8F860
:1036400000E04FEA990C01F00C010F278F404EF07B
:10365000020EC8F800E0D8F8004004F0020400941C
:10366000DDF800E01D4C54F82C4024EA070E1C4FF6
:10367000BD4208BF002427D01A4CA54208BF012430
:1036800022D0194FBD4208BF02241DD0174CA542BD
:1036900008BF032418D0164FBD4208BF042413D01E
:1036A000144CA54208BF05240ED0134FBD4208BFDD
:1036B000062409D0114CA54208BF072404D0104F9E
:1036C000BD427FF41AAF08241DE7BDE8F18F00006A
:1036D00080000058F444025800240258080400589E
:1036E000000002580004025800080258000C02585A
:1036F000001002580014025800180258001C02580A
:103700000020025881B00648016841F002010160C2
:10371000006800F002000090009901B0704700BFFF
:10372000F444025862F30F2262F31F42401810F073
:10373000030308D0C91A1FD3DB0748BF00F8012DC7
:1037400028BF20F8022D130030B414461546103956
:1037500028BF20E93C00FAD8490728BF20E90C001F
:1037600048BF40F8042D890028BF20F8022D48BF2B
:1037700000F8012D30BC7047C91818BF00F8012DA2
:10378000CB0728BF00F8012D704700000849094AFF
:1037900051F82000904201D100207047012070476D
:1037A00041F44071014A42F8201070470064025809
:1037B000806402580003008081B01848016841F01D
:1037C00001010160026802F00102009200990368A1
:1037D00043F004030360026802F0040200920099BF
:1037E000036843F002030360026802F002020092E1
:1037F0000099036843F080030360026802F08002CE
:1038000000920099036843F020030360006800F011
:1038100020000090009901B0704700BFE0440258BA
:1038200080B50A480022016841F00101016000688A
:1038300000F00100009000990B200021FEF77CFFB2
:103840000B20BDE80240FEF795BF00BFD8440258E8
:1038500010B58AB00C2200216846FFF779FD1C22C2
:10386000002103A8384CFFF773FD4FF08040002281
:1038700020601421C7236160A2602046E3602261BA
:10388000A26100F0DAF808B1FFF728FE202100223B
:10389000009169460292204600F032FF08B1FFF71E
:1038A0001DFE60213222039100230492042205931D
:1038B00003A90793204600F01DFA08B1FFF70EFE9A
:1038C000204600F01CF80AB010BD0068B0F1804F2F
:1038D00000D0704780B51D480022016841F0010109
:1038E0000160006800F00100009000991C20002198
:1038F000FEF722FF1C20BDE80240FEF73BBF10B5DB
:1039000086B004461422002101A8FFF721FD236898
:10391000B3F1804F16D10E480823016841F002012F
:10392000016002680B4802F0020200920099022234
:10393000019300210292039104910121059101A9B3
:10394000FFF7CEFD06B010BDC0080024E8440258C1
:10395000E04402580004025810B590F83D100129C7
:1039600001D0012010BD0222DFF8D83180F83D20BF
:103970000168994218BFB1F1804F17D0DFF8C82114
:1039800091421CBFDFF8C43199420FD0DFF8C0412B
:10399000A1421CBFDFF8BC21914207D0DFF8B8314B
:1039A00099421CBFDFF8C041A14208D100F00FF8D6
:1039B00018BFB2F5803F08D000F00FF805E00368AB
:1039C0001A6842F0010219460A60002010BD8A6898
:1039D000DFF898110A40062A70470268116841F022
:1039E00001011046016070472168086840F001003D
:1039F0000A46106070470220211D6870206800F0A0
:103A000008FA0120012128730122A970EA702871A7
:103A10006971AA71E87129726A72A8720020E9724C
:103A20006A7032BD2068012200F0A0BB2868454BB7
:103A3000DFF83411474A9842704738B5040001D185
:103A4000012032BD00F09CF818B900F095F8FFF79E
:103A50003CFFD0E7F8B5044604F13E0009B902780E
:103A60000FE0042908BF42780BD0082908BF8278EC
:103A700007D00C2908BFC27803D010290CBF0279E7
:103A80004279012A01D00120F2BD11B9022202704F
:103A900014E0042902D1022343700FE0082902D167
:103AA000022282700AE00C2902D10223C37005E0D1
:103AB000102907BF0222027102234371FFF7B2FFF0
:103AC0002068FFF7B4FF18BF904208D088421FBF9C
:103AD000DFF89C50A842DFF89C60B04203D1476CED
:103AE00047F4004747642068984218BFB0F1804F00
:103AF0000FD000F01BF81CBF144DA84209D0144E83
:103B0000B04218BF904204D000F013F818BF8842AA
:103B100008D100F023F818BFB1F5803F04D0FFF7BB
:103B200063FF01E000F008F80020F2BD064B984268
:103B30007047094A904270470346196841F00101F5
:103B40000160704700000140000400400008004090
:103B5000000C004000040140001800408168034848
:103B600001400629704700000040014007000100A5
:103B70000044014000480140002120462970704760
:103B800004F13C056878704710B504462068016967
:103B90008A0715D5C368990712D56FF00202012371
:103BA00002612377806910F0030F204602D000F0F5
:103BB000F7FD03E000F0F5FD00F094F80020207719
:103BC000206801694A0715D5C368590712D56FF0F7
:103BD0000402022302612377806910F4407F2046AB
:103BE00002D000F0DDFD03E000F0DBFD00F07AF82C
:103BF00000202077206801690A0715D5C3681907D6
:103C000012D56FF00802042302612377C06910F017
:103C1000030F204602D000F0C3FD03E000F0C1FD19
:103C200000F060F80020207720680169CA0615D5E9
:103C3000C368D90612D56FF01002082302612377FA
:103C4000C06910F4407F204602D000F0A9FD03E0D7
:103C500000F0A7FD00F046F80020207720680169F9
:103C6000CA0708D5C368D90705D56FF001020261FC
:103C7000204600F097FD206801690A0608D5C36850
:103C8000190605D56FF080020261204600F08BFD19
:103C900020680169CA0508D5C368190605D56FF4FF
:103CA00080720261204600F07FFD206801694A06AB
:103CB00008D5C368590605D56FF040020261204659
:103CC00000F073FD206801698A060AD5C368990669
:103CD00007D56FF0200202612046BDE8104000F0D9
:103CE00065BD10BD204600F062BD002084F83C0098
:103CF0002846704770B500F085F801D1022070BDEC
:103D0000012184F83C1052B1042A1AD0082A2BD081
:103D10000C2A3BD0102A4CD0142A5CD06EE02068CC
:103D2000314600F0CFF82168886940F008008861CA
:103D30008A6922F004028A618B69306903438B61CE
:103D40005DE02068314600F0FFF82068816941F4A9
:103D500000618161826922F48062826181693269D5
:103D600041EA022181614AE02068314600F02CF9E5
:103D70002168C86940F00800C861CA6922F00402DD
:103D8000CA61CB6930690343CB6138E020683146B2
:103D900000F053F92068C16941F40061C161C26952
:103DA00022F48062C261C169326941EA0221C161C3
:103DB00025E02068314600F068F92168486D40F040
:103DC000080048654A6D22F004024A654B6D30696F
:103DD00003434B6513E02068314600F081F9206809
:103DE000416D41F400614165426D22F4806242659B
:103DF000416D326941EA0221416500E00125FFF78A
:103E000074FF70BD0446002594F83C000E4601285E
:103E100070472DE9F043DFF824C3D0F800E0DFF865
:103E20002043DFF82053DFF82063DFF82073DFF84A
:103E30002033DFF82083DFF82093604518BFB0F10E
:103E4000804F07D0484518BF404503D0984218BF5F
:103E5000B8420ED14A682EF0700E604542EA0E0E4E
:103E600018BFB0F1804F0CD048451CBF4045984268
:103E700007D0B84218BFB04203D0A84218BFA04232
:103E800004D1CB682EF4407243EA020E4A692EF048
:103E90008003604542EA030EC0F800E08B68C3620D
:103EA000D1F800E0C0F828E018BFB84204D0B04212
:103EB0001CBFA842A04201D10969016301224261ED
:103EC000BDE8F0832DE9F041026ADFF89042DFF8A7
:103ED0006C82DFF874C2DFF874E2520852000262AA
:103EE000076A456886690B688A6827F002072640DA
:103EF000DFF850421E431743DFF84432404518BFF5
:103F0000704504D060451CBFA04298420DD1CA68DC
:103F100027F00807174327F00407404518BF7045EE
:103F200005D0604518BFA04201D0984205D14B6929
:103F300025F440758A691D431543456086614968CB
:103F400041630762BDE8F081F0B5026A22F0100219
:103F50000262056A436884690E68DFF804228F688C
:103F600025F020051440DFF8E42144EA0624DFF8B8
:103F7000CC6145EA0715B04218BF904208D1CF681E
:103F800025F08005B04245EA071525F040050DD023
:103F900090421CBFDFF8B021904207D0DFF8A46147
:103FA000B0421CBFDFF89871B84206D14E698A69E9
:103FB00023F44063164343EA8603436084614968FF
:103FC00081630562F0BD0000F0B5026ADFF88C3154
:103FD00022F480720262066A4468C5690A688F68C2
:103FE00026F400761D40554B154346EA0726574AEE
:103FF000984218BF904208D1CF6826F400669842D4
:1040000046EA072626F480660AD090421CBF4E4A34
:10401000904205D04B4B98421CBF494FB84206D145
:104020004B698A6924F44054134344EA03144460FE
:10403000C5614968C1630662F0BDF0B5026A22F449
:1040400080520262036A4468C5690E68444A8F68F8
:1040500023F4005300F06CF843EA07331CBF3B4ED7
:10406000B04207D0384FB8421FBF364A9042344E54
:10407000B04204D14A6924F4804444EA8214446082
:10408000C561496801640362F0BDF0B5026A354B51
:1040900022F480320262046A4568466D0A688F68BD
:1040A00024F400341E40254B164344EA074498424A
:1040B0001CBF264A904207D0234FB8421FBF214B56
:1040C00098421F4A904204D14B6925F4803545EA55
:1040D000032545604665496881650462F0BD0000BE
:1040E000F0B5026A22F480120262036A4468456DE8
:1040F0000E681D4A8F6823F4001300F019F843EA94
:1041000007531CBF114EB04207D00F4FB8421FBF1C
:104110000C4A90420A4EB04204D14A6924F48024E9
:1041200044EA8224446045654968C1650362F0BD84
:104130001540024A45EA06259042704700000140BA
:10414000004801400044014000400140000401409B
:10415000000C004000080040000400408CFFFEFFFF
:10416000FF8CFFFE8FFFFEFFFF8FFFFE30B5036A5F
:1041700001F01F0101248C4002FA01F1A343036204
:10418000056A2943016230BD38B50446FDF7CEF912
:1041900014F1010F054602D0044801786418FDF7B8
:1041A000C5F9401BA042FAD331BD00BF0000002476
:1041B000F8B50446DFF86C50A86800F00700062840
:1041C00005D0A96801F03F01A14228D025E0A868E8
:1041D00040F2E936800944EA8010A860FDF7A6F9AC
:1041E00007462868810405D4FDF7A0F9C01BB0423A
:1041F000F7D312E01E2C18BF2E2C03D01D2C18BF95
:104200002D2C0CD1FDF792F90446A868C10306D401
:10421000FDF78CF9001BB042F7D30120F2BD00205E
:10422000F2BD0000044802582DE9F04104002CD0F2
:104230002078DFF8C054C10711D52869A96A00F0B9
:104240003800102805D0182804BF01F00301022906
:1042500030D129688A0302D56068002815D02178FA
:1042600041F2040688076BD52869A96A202700F067
:10427000380028B1182808BF11F0030F40F0A980BA
:10428000E06829684A0702D5002800F02D822968D5
:1042900021F0190108432860FDF748F98046286895
:1042A000410742D4FDF742F9A0EB08000328F6D3FA
:1042B00003201CE26068B0F5803F0FD038B9296850
:1042C00021F480312960286820F4802009E0B0F5CD
:1042D000A02F08D1296841F480212960286840F482
:1042E0008030286007E02A6822F480322A6029683A
:1042F00021F480212960606858B1FDF717F906465E
:1043000029688803ABD4FDF711F9801B6528F7D322
:10431000CEE7FDF70BF90646286881039FD5FDF728
:1043200005F9801B6528F7D3C2E7FFF701F8B04213
:1043300048D2206940283ED1686867F31130686030
:104340002178C8061ED528691027A96A00F0380010
:10435000082805D0182804BF01F00301012973D1F2
:104360002868C10503D5E269802A40F0BD81FEF7C7
:10437000DFFFB04260D2206A202856D1686867F318
:104380009E60686021780A0740F199806069002882
:1043900000F08580696F41F001016967FDF7C6F89B
:1043A0000646686F810700F18A80FDF7BFF8801B21
:1043B0000328F6D37CE7696821F47C3141EA0031B7
:1043C0006960BDE76868216920F0FE4040EA01604D
:1043D000B5E7E068C8B1296821F0190108432860F1
:1043E000FDF7A4F880462868410706D4FDF79EF83B
:1043F000A0EB08000328F6D35AE7FEF799FFB04276
:10440000E0D220694028D6D196E7286840084000CD
:104410002860FDF78BF807462968480790D5FDF717
:1044200085F8C01B0328F7D342E7696821F0F841FB
:1044300041EA80616960A5E7E868216A20F07C5064
:1044400040EA0160E8609DE7E069C0B1296841F099
:1044500080012960FDF76AF880462868C10506D406
:10446000FDF764F8A0EB08000328F6D320E7FEF779
:104470005FFFB042E0D2206A2028D6D17EE72868CC
:1044800020F080002860FDF751F806462968C8052D
:10449000D9D5FDF74BF8801B0328F7D308E7686FE1
:1044A000400840006867FDF741F80646686F8107DD
:1044B00005D5FDF73BF8801B0328F7D3F8E62178F4
:1044C0008A0621D5A06978B1296841F48051296014
:1044D000FDF72CF806462868810415D4FDF726F868
:1044E000801B0328F7D3E3E6286820F48050286077
:1044F000FDF71CF806462968880405D5FDF716F86F
:10450000801B0328F7D3D3E62078410748D57A4F9C
:104510003A6842F480723A60FDF708F80646386857
:10452000C10505D4FDF702F8801B6528F7D3BFE667
:10453000A068012804D1286F40F00100286713E02B
:1045400008B9286F09E00528286F06D140F004005B
:104550002867296F41F0010105E040084000286705
:10456000296F21F004012967A06841F2893658B10A
:10457000FCF7DCFF0746286F810711D4FCF7D6FF54
:10458000C01BB042F7D393E6FCF7D0FF0746286F75
:10459000810705D5FCF7CAFFC01BB042F7D387E6F9
:1045A000606A002800F0A280296901F0380118290A
:1045B00074D00228286820F08070286062D1FCF74F
:1045C000B5FF06462968880105D5FCF7AFFF801BBB
:1045D0000328F7D36CE6A86AA26A4849E36A084050
:1045E000104340EA0310A862616B206BA26B491E66
:1045F0004902401EC0F30800521E01F47E4112041D
:104600000843E16B02F4FE021043491E090601F063
:10461000FE4108432863E86A40084000E862696B8D
:10462000A06C6FF3CF0141EAC0016963E96A206CB5
:1046300021F00C010143E962E96A606C21F002019A
:104640000143E962E96A41F48031E962E86A40F4D1
:104650000030E862E96A41F48021E962E86A40F0EA
:104660000100E862296841F080712960FCF75EFF73
:1046700004462868810139D4FCF758FF001B032841
:10468000F7D315E6FCF752FF0446296888012DD5BB
:10469000FCF74CFF001B0328F7D309E60128A96AA1
:1046A0002A6B21D0A36A01F00300984202BFC1F334
:1046B0000510E16A884217D1236BC2F30800401C41
:1046C000984201BFC2F34620401C616B88420BD167
:1046D000A16BC2F30640401C884201BFC2F30660D2
:1046E000401CE16B884201D0012000E00020BDE8C1
:1046F000F08100BF00440258004802580CFCFFFF44
:10470000F0B500F13C042278012A01D10220F0BD6D
:10471000012302222370DFF878E062700668DFF878
:1047200074C07768B568764518BF664503D14B6895
:1047300027F470071F430A6827F070071743776054
:104740000268724518BFB2F1804F10D00F48824204
:104750001CBF114B9A420AD00B4EB24218BF6245A1
:1047600005D0084882421CBF0C4B9A4204D188688D
:1047700025F080050543956001210022617000202D
:104780002270F0BD00180040000C00400004004002
:1047900000000140000401400008004000400140CA
:1047A0007047704770477047704770477047704751
:1047B00070B52A482A4B816F41F470018167026805
:1047C00042F0100202601868072200F00F0007286C
:1047D00003D2186862F303001860224900250C68B0
:1047E000214844F001040C600D610E6806400E6023
:1047F0001C6804F00F04072C03D9186862F3030047
:104800001860002200238A610020CB61174A0862E9
:10481000174B8A621748CB620022086300234A6361
:104820008863CB630864002048640A68124822F455
:1048300080220A600B66016841F4804101600F48E4
:104840000268120C1204B2F1005F02D201210C487E
:10485000016043F2D2020B4B1A6070BD10ED00E014
:1048600000200052004402587FEDF6EA00020202E6
:104870000000FF0180020101E40000580010005C0C
:1048800008810051004000520000000001020304B2
:10489000010203040607080930B4002512E050F8AD
:1048A000042BD30744BF4A44521E091F042942F86F
:1048B000045BFAD213468C0744BF15809B1CC907C2
:1048C00048BF1D7050F8041B0029E8D130BC704768
:1048D000FEE7FEE7FEE7FEE7FEE77047704770473A
:1048E00000F00AB80248FCF77BB80248FFF74CB961
:1048F000E4070024C00800240248416802788A18AE
:10490000426070470000002410B50749794418310F
:10491000064C7C44163404E00A68081D114488479C
:104920000146A142F8D110BD2C0000004C0000004F
:104930004EF68851CEF20001086840F4700008601D
:10494000BFF34F8FBFF36F8F4FF00170E1EE100A8E
:104950007047000045FFFFFFF80800001400002426
:104960000000000057E9FFFF140000007000000085
:10497000000000240000000000F00DF8002801D025
:10498000FFF7C2FFAFF300800020AFF30080FEF717
:10499000E9FC00F002F80120704700F001B80000C7
:1049A0000746384600F002F8FBE7000080B5AFF399
:1049B0000080024A11001820ABBEFBE7260002006F
:1049C0000548014603B4684680F30988AFF30080C8
:1049D000FFF7AEFFFFF7D0FFA5EDF5FE01000000E9
:1049E00000000000100000000090D0030090D003F1
:1049F0000148804701480047B1470008C149000805
:104A0000FFF7FEBFFFF7FEBFFFF7FEBFFFF7FEBFDA
:104A1000FFF7FEBFFFF7FEBFFFF7FEBFFFF7FEBFCA
:104A2000FFF7FEBFFFF7FEBFFFF7FEBFFFF7FEBFBA
:104A3000FFF7FEBFFFF7FEBFFFF7FEBFFFF7FEBFAA
:04000005080049C1E5
:00000001FF
