:020000040800F2
:10000000600400245D170008251700082717000862
:10001000291700082B1700082D1700080000000002
:100020000000000000000000000000002F17000882
:1000300031170008000000003317000835170008CA
:100040006D17000871170008751700087917000868
:100050007D17000881170008851700088917000818
:100060008D170008911700089517000899170008C8
:100070009D170008A1170008A5170008A917000878
:10008000AD170008B1170008B5170008B917000828
:10009000BD170008C1170008C5170008C9170008D8
:1000A000CD170008D1170008D5170008D917000888
:1000B000DD170008E1170008E5170008E917000838
:1000C000ED170008F1170008F5170008F9170008E8
:1000D000FD17000801180008051800080918000895
:1000E0000D1800081118000800000000151800087D
:1000F000191800081D180008211800082518000804
:10010000291800082D1800083118000835180008B3
:10011000391800083D180008411800084518000863
:10012000491800084D180008511800085518000813
:10013000591800085D1800086118000865180008C3
:10014000691800086D180008000000000000000099
:100150007118000875180008791800087D18000843
:100160008118000885180008891800088D180008F3
:100170009118000895180008991800080000000060
:100180009D180008A1180008A5180008A918000863
:10019000AD180008B1180008B5180008B918000813
:1001A000BD180008C1180008C5180008C9180008C3
:1001B000CD180008D1180008D5180008D918000873
:1001C000DD180008E1180008E5180008E918000823
:1001D000ED180008F1180008F5180008F9180008D3
:1001E000FD18000801190008051900080919000880
:1001F0000D1900081119000815190008191900082F
:100200001D190008211900082519000829190008DE
:100210002D1900083119000835190008391900088E
:100220003D190008411900084519000800000000A8
:10023000491900084D1900085119000855190008FE
:10024000591900085D1900086119000865190008AE
:10025000691900086D19000871190008751900085E
:10026000791900087D19000881190008851900080E
:10027000891900088D1900089119000895190008BE
:10028000991900089D190008A11900080000000034
:10029000A5190008A91900080220211D687020680E
:1002A00000F0BAF80120012128730122A970EA7038
:1002B00028716971AA71E87129726A72A8720020A6
:1002C000E9726A7032BD38B5040001D1012032BD37
:1002D00000F00AF818B900F003F800F085FADBE73F
:1002E000002120462970704704F13C05687870476A
:1002F000002084F83C002846704770B500F085F86F
:1003000001D1022070BD012184F83C1052B1042AB1
:100310001AD0082A2BD00C2A3BD0102A4CD0142AF1
:100320005CD06EE02068314600F0CFF82168886923
:1003300040F0080088618A6922F004028A618B69B2
:10034000306903438B615DE02068314600F0FFF8BF
:100350002068816941F400618161826922F48062D0
:1003600082618169326941EA022181614AE0206843
:10037000314600F02CF92168C86940F00800C861D6
:10038000CA6922F00402CA61CB6930690343CB61B8
:1003900038E02068314600F053F92068C16941F423
:1003A0000061C161C26922F48062C261C1693269BF
:1003B00041EA0221C16125E02068314600F068F978
:1003C0002168486D40F0080048654A6D22F004023B
:1003D0004A654B6D306903434B6513E02068314635
:1003E00000F081F92068416D41F400614165426D82
:1003F00022F480624265416D326941EA0221416521
:1004000000E00125FFF774FF70BD0446002594F855
:100410003C000E46012870472DE9F043DFF824C365
:10042000D0F800E0DFF82043DFF82053DFF8206346
:10043000DFF82073DFF82033DFF82083DFF8209324
:10044000604518BFB0F1804F07D0484518BF404500
:1004500003D0984218BFB8420ED14A682EF0700EF1
:10046000604542EA0E0E18BFB0F1804F0CD04845EF
:100470001CBF4045984207D0B84218BFB04203D0D5
:10048000A84218BFA04204D1CB682EF4407243EAC0
:10049000020E4A692EF08003604542EA030EC0F85E
:1004A00000E08B68C362D1F800E0C0F828E018BF14
:1004B000B84204D0B0421CBFA842A04201D1096991
:1004C000016301224261BDE8F0832DE9F041026A37
:1004D000DFF89042DFF86C82DFF874C2DFF874E274
:1004E000520852000262076A456886690B688A688A
:1004F00027F002072640DFF854421E431743DFF877
:100500004832404518BF704504D060451CBFA0422A
:1005100098420DD1CA6827F00807174327F004074F
:10052000404518BF704505D0604518BFA04201D0B6
:10053000984205D14B6925F440758A691D431543DE
:1005400045608661496841630762BDE8F081F0B5A6
:10055000026A22F010020262056A436884690E682A
:10056000DFF804228F6825F020051440DFF8E4212D
:1005700044EA0624DFF8CC6145EA0715B04218BF0B
:10058000904208D1CF6825F08005B04245EA0715B2
:1005900025F040050DD090421CBFDFF8B4219042F9
:1005A00007D0DFF8A861B0421CBFDFF89C71B842E9
:1005B00006D14E698A6923F44063164343EA8603F1
:1005C00043608461496881630562F0BD0000F0B555
:1005D000026ADFF8903122F480720262066A44688F
:1005E000C5690A688F6826F400761D40554B15438F
:1005F00046EA0726574A984218BF904208D1CF686A
:1006000026F40066984246EA072626F480660AD059
:1006100090421CBF4E4A904205D04C4B98421CBFA2
:10062000494FB84206D14B698A6924F440541343B8
:1006300044EA03144460C5614968C1630662F0BDC1
:10064000F0B5026A22F480520262036A4468C56906
:100650000E68454A8F6823F4005300F06CF843EAB3
:1006600007331CBF3B4EB04207D0394FB8421FBFC3
:10067000364A9042344EB04204D14A6924F4804450
:1006800044EA82144460C561496801640362F0BDB4
:10069000F0B5026A354B22F480320262046A456882
:1006A000466D0A688F6824F400341E40254B1643BB
:1006B00044EA074498421CBF264A904207D0244F80
:1006C000B8421FBF214B98421F4A904204D14B6948
:1006D00025F4803545EA032545604665496881650E
:1006E0000462F0BD0000F0B5026A22F480120262DA
:1006F000036A4468456D0E681D4A8F6823F4001331
:1007000000F019F843EA07531CBF124EB04207D05D
:100710000F4FB8421FBF0D4A90420B4EB04204D15A
:100720004A6924F4802444EA822444604565496887
:10073000C1650362F0BD1540024A45EA06259042B4
:1007400070470000000001400048014000440140A3
:100750000040014000040140000C0040000800403F
:10076000000400408CFFFEFFFF8CFFFE8FFFFEFFAA
:10077000FF8FFFFE10B58AB00C220021684600F002
:1007800049F81C22002103A8204C00F043F84FF048
:100790008040002220601421C7236160A2602046AF
:1007A000E3602261A261FFF78EFD08B100F0E0F87E
:1007B00020210022009169460292204600F0DAF8DA
:1007C00008B100F0D5F86021322203910023049291
:1007D0000422059303A907932046FFF78EFD08B175
:1007E00000F0C6F80AB010BD81B00068B0F1804FCB
:1007F00009D10748016841F001010160006800F07B
:1008000001000090009901B070470000140000241E
:10081000E844025810B5044610460A4601462046F0
:1008200000F0F8F8204610BD38B54FF6FF742046AA
:100830004A4D29680A0403D50146481E0029F8DC00
:10084000002848BF00F094F800F02CF900F023F8DD
:100850004348016841F000710160006800F00070D9
:1008600000900099002000F051F90021002000F0D4
:1008700057F92868010403D42046441E0028F8DCF8
:10088000002C48BF00F074F800F056F900F06CF945
:10089000FFF770FFFEE780B59CB04C22002109A84D
:1008A000FFF7B8FF2022002101A8FFF7B3FF0420C3
:1008B00000F06AF9002000902A48016841F44041A4
:1008C00001600268284902F4404200920B6843F03C
:1008D00001030B60096801F001010091009A0168B1
:1008E0008B04FCD521480221026801239208920062
:1008F000026040220D920022099109A81291042160
:1009000013923C2214910221159204221691002187
:10091000179218920C220C9319921A911B9100F0C5
:100920006FF908B100F024F83F210322019108215A
:1009300002924022049140210592002306914FF437
:10094000806208910421039301A8079200F0C4FB80
:1009500008B100F00DF81DB000BD000000440258C1
:10096000E0440258184802582C0400582844025801
:1009700072B6FEE7F0B500F13C042278012A01D1FD
:100980000220F0BD012302222370DFF878E06270BC
:100990000668DFF874C07768B568764518BF6645A5
:1009A00003D14B6827F470071F430A6827F07007CC
:1009B000174377600268724518BFB2F1804F10D0BC
:1009C0000F4882421CBF114B9A420AD00B4EB242D2
:1009D00018BF624505D0084882421CBF0C4B9A42A2
:1009E00004D1886825F08005054395600121002227
:1009F000617000202270F0BD00180040000C004023
:100A000000040040000001400004014000080040D4
:100A10000040014062F30F2262F31F42401810F0C1
:100A2000030308D0C91A1FD3DB0748BF00F8012D04
:100A300028BF20F8022D130030B414461546103993
:100A400028BF20E93C00FAD8490728BF20E90C005C
:100A500048BF40F8042D890028BF20F8022D48BF68
:100A600000F8012D30BC7047C91818BF00F8012DDF
:100A7000CB0728BF00F8012D70470EE002684368DD
:100A8000024408305FEAC37C44BF4B445B1E52F80B
:100A900004CB43F804CB091FF9D150F8041B0029FB
:100AA000ECD1704738B50320DFF84C5000F0BFFCA4
:100AB00000F016FC1149124A0B68C3F30323D45CFF
:100AC000096801F00F01525C04F01F04E0400D4C76
:100AD00002F01F0220FA02F323602860002000F0D9
:100AE000EFFC08B1012032BD00F00CFD002032BD4A
:100AF00005480068000C70470C0000241844025898
:100B000008160008100000240010005C0849094A7B
:100B100051F82000904201D1002070470120704719
:100B200041F44071014A42F82010704700640258B5
:100B3000806402580003008081B00A48016841F0D7
:100B400001010160026802F001020092009903684D
:100B500043F080030360006800F08000009000997B
:100B600001B07047E044025881B00648016841F086
:100B700001010160006800F001000090009901B0DF
:100B8000704700BFD8440258F8B50446DFF86C50EF
:100B9000A86800F00700062805D0A96801F03F0109
:100BA000A14228D025E0A86840F2E936800944EA4D
:100BB0008010A86000F0B6FC07462868810405D4C0
:100BC00000F0B0FCC01BB042F7D312E01E2C18BFDF
:100BD0002E2C03D01D2C18BF2D2C0CD100F0A2FC04
:100BE0000446A868C10306D400F09CFC001BB04278
:100BF000F7D30120F2BD0020F2BD000004480258E6
:100C00002DE9F04104002CD02078DFF8C054C10752
:100C100011D52869A96A00F03800102805D01828D5
:100C200004BF01F00301022930D129688A0302D5EB
:100C30006068002815D0217841F2040688076BD53A
:100C40002869A96A202700F0380028B1182808BFB1
:100C500011F0030F40F0A980E06829684A0702D527
:100C6000002800F02D82296821F01901084328602E
:100C700000F058FC80462868410742D400F052FC3E
:100C8000A0EB08000328F6D303201CE26068B0F54F
:100C9000803F0FD038B9296821F480312960286855
:100CA00020F4802009E0B0F5A02F08D1296841F494
:100CB00080212960286840F48030286007E02A6895
:100CC00022F480322A60296821F48021296060683A
:100CD00058B100F027FC064629688803ABD400F021
:100CE00021FC801B6528F7D3CEE700F01BFC0646ED
:100CF000286881039FD500F015FC801B6528F7D379
:100D0000C2E7FFF7F5FEB04248D2206940283ED145
:100D1000686867F3113068602178C8061ED52869B5
:100D20001027A96A00F03800082805D0182804BF49
:100D300001F00301012973D12868C10503D5E269D7
:100D4000802A40F0BD81FFF7D3FEB04260D2206A16
:100D5000202856D1686867F39E60686021780A078A
:100D600040F199806069002800F08580696F41F04A
:100D70000101696700F0D6FB0646686F810700F144
:100D80008A8000F0CFFB801B0328F6D37CE76968DC
:100D900021F47C3141EA00316960BDE7686821696E
:100DA00020F0FE4040EA0160B5E7E068C8B129687C
:100DB00021F019010843286000F0B4FB8046286840
:100DC000410706D400F0AEFBA0EB08000328F6D3E1
:100DD0005AE7FFF78DFEB042E0D220694028D6D115
:100DE00096E7286840084000286000F09BFB074613
:100DF0002968480790D500F095FBC01B0328F7D35E
:100E000042E7696821F0F84141EA80616960A5E73D
:100E1000E868216A20F07C5040EA0160E8609DE7C4
:100E2000E069C0B1296841F08001296000F07AFBD7
:100E300080462868C10506D400F074FBA0EB0800CA
:100E40000328F6D320E7FFF753FEB042E0D2206A32
:100E50002028D6D17EE7286820F08000286000F0A6
:100E600061FB06462968C805D9D500F05BFB801BED
:100E70000328F7D308E7686F40084000686700F070
:100E800051FB0646686F810705D500F04BFB801BC0
:100E90000328F7D3F8E621788A0621D5A06978B12E
:100EA000296841F48051296000F03CFB064628681F
:100EB000810415D400F036FB801B0328F7D3E3E64A
:100EC000286820F48050286000F02CFB0646296832
:100ED000880405D500F026FB801B0328F7D3D3E652
:100EE0002078410748D57A4F3A6842F480723A60D8
:100EF00000F018FB06463868C10505D400F012FB67
:100F0000801B6528F7D3BFE6A068012804D1286FAD
:100F100040F00100286713E008B9286F09E00528B0
:100F2000286F06D140F004002867296F41F00101C5
:100F300005E0400840002867296F21F00401296777
:100F4000A06841F2893658B100F0ECFA0746286FE4
:100F5000810711D400F0E6FAC01BB042F7D393E644
:100F600000F0E0FA0746286F810705D500F0DAFAAD
:100F7000C01BB042F7D387E6606A002800F0A28069
:100F8000296901F03801182974D00228286820F056
:100F90008070286062D100F0C5FA06462968880191
:100FA00005D500F0BFFA801B0328F7D36CE6A86ACA
:100FB000A26A4849E36A0840104340EA0310A86265
:100FC000616B206BA26B491E4902401EC0F30800F2
:100FD000521E01F47E4112040843E16B02F4FE024A
:100FE0001043491E090601F0FE4108432863E86AE0
:100FF00040084000E862696BA06C6FF3CF0141EAE2
:10100000C0016963E96A206C21F00C010143E962C7
:10101000E96A606C21F002010143E962E96A41F486
:101020008031E962E86A40F40030E862E96A41F43C
:101030008021E962E86A40F00100E862296841F035
:101040008071296000F06EFA04462868810139D465
:1010500000F068FA001B0328F7D315E600F062FAE7
:101060000446296888012DD500F05CFA001B03288E
:10107000F7D309E60128A96A2A6B21D0A36A01F0F7
:101080000300984202BFC1F30510E16A884217D1FC
:10109000236BC2F30800401C984201BFC2F34620F4
:1010A000401C616B88420BD1A16BC2F30640401C0F
:1010B000884201BFC2F30660401CE16B884201D048
:1010C000012000E00020BDE8F08100BF004402588C
:1010D000004802580CFCFFFF2DE9F041040088464F
:1010E00056D0DFF80C63306800F00F00404502D2A4
:1010F00000F0EBF87AD12078DFF8F852410706D5F6
:101100002069AA6902F07002824200F0D7F82078C4
:10111000010706D56069EA6902F07002824200F0B8
:10112000C6F82078C10606D5A069EA6902F4E06233
:10113000824200F0B5F82078810606D5E0692A6A77
:1011400002F07002824200F0A4F82078810706D5F0
:10115000E068AA6902F00F02824200F093F820785A
:10116000C10731D5AA69A06822F470620243AA615E
:101170006068022802D129688A0308E0032802D1A6
:1011800029688A0103E0012803D12968CA0503D42C
:101190002CE02B68590729D52A69D20840EAC200F9
:1011A000286100F0BFF907462869616800F038003F
:1011B000B0EBC10F08D000F0B5F9C01B41F2893285
:1011C0009042F1D303205BE02078810706D5E068E8
:1011D000AA6902F00F02904200F054F8306800F063
:1011E0000F00804504D200F070F801D0012047E0E4
:1011F0002078410706D52069AA6902F07002904262
:1012000000F05CF82078010706D56069EA6902F011
:101210007002904200F04BF82078C10606D5A06914
:10122000EA6902F4E062904200F03AF82078810620
:1012300006D5E0692A6A02F07002904200F029F8AF
:1012400000F04EF8AA69DFF8C011C2F303228B5CEC
:10125000AC69DFF8A45104F00F04095D03F01F032B
:10126000D840DFF8983101F01F0120FA01F21A602E
:101270002860DFF890010068BDE8F04100F020B977
:10128000BDE8F08104D2A969090940EA0110A8610A
:10129000704704D2296A21F0700108432862704720
:1012A00004D2E96921F4E0610843E861704704D29F
:1012B000E96921F070010843E861704704D2A96927
:1012C00021F070010843A86170473168090948EAB4
:1012D00001113160326802F00F0242457047000090
:1012E00030B5444B4648196911F0380104D0102933
:1012F0000AD018290AD069E01A68940667D51968D7
:10130000C1F3C101C84030BD404830BD9C6A996AF4
:10131000DD6A5A6B05F00105C1F30511C2F3CC0279
:101320005543002900EE105AB8EE400A4CD014F094
:10133000030400EE901AF8EE600A02D0022C20D0CE
:1013400022E019689FED261A20EE010A8A0608D5C8
:101350001968C1F3C101C84000F03CF8C1EE200A91
:1013600003E09FED202AC2EE200A186BF7EE001A68
:1013700000F02EF831EE000A70EE211A20EEA10ADC
:1013800013E09FED192A01E09FED182A186BDFED9D
:10139000141AC2EE200A00F01BF800EE211AB7EE74
:1013A000000A31EE000A20EE800A186BC0F34620D6
:1013B000401C00EE900AF8EE600A80EE200ABCEEB7
:1013C000C00A10EE100A30BD002030BD104830BDFC
:1013D000C0F3080001EE100AB8EE411A7047000091
:1013E000000000390024744C20BCBE4B0024744A19
:1013F00000200052004402580C0000241000002479
:101400000090D003080000240816000840787D01F1
:1014100000093D000901020002D4234881547047AD
:10142000224B02F00F021A4402F8041C7047204BB2
:101430004FF6FF021968000200F4E0601140084313
:101440001C4908431860704770B5194B1C68C4F3F9
:1014500002230124C3F10705052D2EBF0F2504FA31
:1014600005F56D1E1E1D072E34BF0023DB1E29400F
:10147000994004FA03F35B1E1A401143BDE8704023
:10148000C8E70000401EB0F1807F10B501D30120F5
:1014900010BD0949094A4860F020107000238B6094
:1014A00007240C60002010BD00E400E018ED00E00F
:1014B0000CED00E00000FA0510E000E023ED00E094
:1014C00038B504460D4D2878A8B10D4A4FF47A710D
:1014D0001368B1FBF0F0B3FBF0F0FFF7D3FF50B9A6
:1014E000102C08D2002221464FF0FF30FFF7ACFF4E
:1014F000AC60002032BD012032BD00BF00000024DE
:101500000C00002481B00648016841F0020101602E
:10151000006800F002000090009901B0704700BF21
:10152000F444025801484068704700BF000000249E
:1015300070B52A482A4B816F41F4700181670268B7
:1015400042F0100202601868072200F00F0007281E
:1015500003D2186862F303001860224900250C6862
:10156000214844F001040C600D610E6806400E60D5
:101570001C6804F00F04072C03D9186862F30300F9
:101580001860002200238A610020CB61174A08629C
:10159000174B8A621748CB620022086300234A6314
:1015A0008863CB630864002048640A68124822F408
:1015B00080220A600B66016841F4804101600F4897
:1015C0000268120C1204B2F1005F02D201210C4831
:1015D000016043F2D2020B4B1A6070BD10ED00E0C7
:1015E00000200052004402587FEDF6EA0002020299
:1015F0000000FF0180020101E40000580010005CBF
:101600000881005100400052000000000102030464
:10161000010203040607080930B4002512E050F85F
:10162000042BD30744BF4A44521E091F042942F821
:10163000045BFAD213468C0744BF15809B1CC90774
:1016400048BF1D7050F8041B0029E8D130BC70471A
:1016500010B5074979441831064C7C44163404E02F
:101660000A68081D114488470146A142F8D110BDFF
:101670002C0000004C0000004EF68851CEF2000114
:10168000086840F470000860BFF34F8FBFF36F8F9E
:101690004FF00170E1EE100A704700007DFFFFFF80
:1016A0004C0000001400002400000000CFF3FFFFF6
:1016B000140000009400000000000024000000005E
:1016C00000F00DF8002801D0FFF7C2FFAFF3008053
:1016D0000020AFF30080FFF7A7F800F002F8012028
:1016E000704700F001B800000746384600F002F8E5
:1016F000FBE7000080B5AFF30080024A110018201C
:10170000ABBEFBE7260002000548014603B468466D
:1017100080F30988AFF30080FFF7AEFFFFF7D0FF3B
:10172000A5EDF5FEFEE7FEE7FEE7FEE7FEE7704704
:101730007047704700F000B80248416802788A1884
:10174000426070470000002401000000000000001B
:10175000100000000090D0030090D00301488047A3
:10176000014800473115000809170008FFF7FEBFC0
:10177000FFF7FEBFFFF7FEBFFFF7FEBFFFF7FEBF9D
:10178000FFF7FEBFFFF7FEBFFFF7FEBFFFF7FEBF8D
:10179000FFF7FEBFFFF7FEBFFFF7FEBFFFF7FEBF7D
:1017A000FFF7FEBFFFF7FEBFFFF7FEBFFFF7FEBF6D
:0400000508001709CF
:00000001FF
