:020000040810E2
:10000000100D0010B1401008693F10086B3F100838
:100010006D3F10086F3F1008713F1008000000008E
:10002000000000000000000000000000733F100806
:10003000753F100800000000773F1008793F100856
:10004000C1401008C5401008C9401008CD40100834
:10005000D1401008D5401008D9401008DD401008E4
:10006000E1401008E5401008E94010087D3F100805
:10007000ED401008F1401008F5401008F940100854
:10008000FD40100801411008054110080941100801
:100090000D411008114110081541100819411008B0
:1000A0001D41100821411008254110082941100860
:1000B000833F10082D4110083141100835411008C8
:1000C000394110083D4110084141100845411008D0
:1000D000494110084D411008514110085541100880
:1000E000594110085D4110080000000061411008EE
:1000F00065411008694110086D41100871411008F0
:1001000075411008794110087D411008814110089F
:1001100085411008894110088D411008914110084F
:1001200095411008994110089D411008A1411008FF
:10013000A5411008A9411008AD411008B1411008AF
:10014000B5411008B941100800000000000000008F
:10015000BD411008C1411008C5411008C94110082F
:10016000CD411008D1411008D5411008D9411008DF
:10017000DD411008E1411008E541100800000000D1
:10018000E9411008ED411008F1411008F54110084F
:10019000F9411008FD4110080142100805421008FD
:1001A000094210080D4210081142100815421008AB
:1001B000194210081D42100821421008254210085B
:1001C000294210082D42100831421008354210080B
:1001D000394210083D4210084142100845421008BB
:1001E000494210084D42100851421008554210086B
:1001F000594210085D42100861421008654210081B
:10020000694210086D4210087142100875421008CA
:10021000794210087D42100881421008854210087A
:10022000894210088D421008914210080000000019
:1002300095421008994210089D421008A1421008EA
:10024000A5421008A9421008AD421008B14210089A
:10025000B5421008B9421008BD421008C14210084A
:10026000C5421008C9421008CD421008D1421008FA
:10027000D5421008D9421008DD421008E1421008AA
:10028000E5421008E9421008ED42100800000000A5
:10029000F1421008F54210082DE9F84F044601F02C
:1002A00003F9002C00F018812168DFF8F4B5DFF8BD
:1002B000F46500F041FB04F13405594518BF514580
:1002C0002BD0494518BF414527D0B94218BFB1428C
:1002D00023D000F004FF1CBFDFF8CC3599421CD0BE
:1002E00000F0F9FE1CBFDFF8C435994215D000F0CC
:1002F000EAFE1CBFDFF8B83599420ED000F0DFFEF1
:100300001CBFDFF8B035994207D0DFF8AC25914229
:100310001CBFDFF8A83599423CD102226A70002345
:100320002B70594518BF514522D0494518BF41454A
:100330001ED0B94218BFB1421AD000F0D0FE1CBF87
:10034000DFF86435994213D000F0C5FE1CBFDFF81A
:100350005C3599420CD000F0B6FE1CBFDFF850357A
:10036000994205D000F0ABFE1CBFDFF8483599423A
:100370000A6852080B4652001A6000902268106802
:10038000C10735D501F090F80099401A0628F5D339
:1003900020209EE0DFF8280581421CBFDFF82425DD
:1003A000914218D0DFF8200581421CBFDFF81C25E0
:1003B000914210D0DFF8180581421CBFDFF81425E8
:1003C000914208D0DFF8100581421CBFDFF83C25C0
:1003D000914240F07D80022000F069FE22681268A0
:1003E000A06840286FF3101278D142F0100279E033
:1003F0001368DFF8E814A0680B40E1680343206944
:100400000B4361690343A0690B43E1690343206A1D
:100410000B43616A0343042903D1E16A206B0B4358
:100420000343DFF8BC14D1F800C04FEA1C400004BD
:10043000B0F1005F11D36068A0F12901062924BF43
:10044000A0F13F01042906D3A0F14701022924BFEE
:100450004F38042801D243F4801313602268536993
:10046000606ADB08042840EAC3030ED1D4F828E010
:10047000E06A4EEA030340B1A16969B9BEF1000F19
:1004800018BFBEF1020F1CD011D35361204600F0FB
:10049000FDFE00F0C7F843E0B1F5005F0BD1BEF1FF
:1004A000030FF2D8DFE80EF00F0D0F03EDE7B0F108
:1004B000C07FEAD107E0BEF1020F04D9BEF103010B
:1004C000E3D1C001E1D5402129620120687098E0A4
:1004D0004020286203216970012092E0802808BF33
:1004E00042F48042E368216960690B43A1690343D8
:1004F000E0690B430343216ADFF8E80342EAD302D1
:10050000236842EA11121A60142122688218B2FB91
:10051000F1F18900A962204600F0B8FE00F07AF8F7
:100520002068584518BF50454AD0484518BF404537
:1005300046D0B84218BFB04242D000F0ADF91CBF5F
:10054000DFF8642390423BD000F0A2F91CBFDFF833
:100550005C23904234D000F097F91CBFDFF85023A1
:1005600090422DD000F08CF91CBFDFF84823904258
:1005700026D000F0BCF91CBFDFF8402390421FD00A
:10058000DFF83C1388421CBFDFF83823904217D0B5
:10059000DFF8341388421CBFDFF8302390420FD0BD
:1005A000DFF82C1388421CBFDFF82823904207D0C5
:1005B000DFF8241388421CBFDFF8502390421BD180
:1005C000204600F0BBFEA068802804BF00216160C7
:1005D000E96A20790860296B686B4860606838B107
:1005E000092805D2204600F0F7FE00F00CF803E0E1
:1005F0000020A863E8632864002129620120687054
:100600000020BDE8F28FA96B00200860E96B286C20
:100610004860704795F82820012102F01F029140A0
:100620004160704795F828203F2102F01F02914059
:10063000816070472DE9F84F044600250CB9012070
:100640001CE104F134063078012808BF0220F7D0FD
:100650000120307096F801B0BBF1010F40F0088125
:1006600002207070AB46C6F820B0206800F043F955
:1006700018BF484525D0404518BF584521D0DFF860
:100680009C72B8421CBF874FB8421AD0DFF88872FC
:10069000B8421CBF844FB84213D0DFF87872B8421A
:1006A0001CBF824FB8420CD0DFF86472B8421CBF46
:1006B0007F4FB84205D0DFF87072B8421CBF7D4F43
:1006C000B8422068D0F800C04FEA5C0786464FEA7F
:1006D000470CCEF800C0204600F008FD20685045C9
:1006E00018BF484527D0404518BF584523D000F0D3
:1006F000FBF81CBF6B4A90421DD000F0CDF81CBF28
:10070000694A904217D000F0C3F81CBF674A904274
:1007100011D000F0B9F81CBF654A90420BD000F030
:10072000AFF81CBF634A904205D000F0E0F81CBF50
:10073000624A90420DD121680A680B200B4660F393
:1007400044021A60F06890B12068016841F0080125
:100750000CE021680A6805200B4660F343021A602A
:10076000F06820B12068016841F004010160206850
:10077000DFF8A0114C4ADFF8A031DFF828C1DFF81C
:100780009CE1504518BF48453DD0404518BF5845ED
:1007900039D0704518BF604535D0984218BF904297
:1007A00031D088421CBF414FB8422CD0DFF8607175
:1007B000B8421CBF3E4FB84225D0DFF86C71B8423A
:1007C0001CBF3C4FB8421ED03B4FB8421CBF3B4FF2
:1007D000B84218D03A4FB8421CBF3A4FB84212D074
:1007E000394FB8421CBF394FB8420CD0384FB842CD
:1007F0001CBF384FB84206D0374FB8421CBFDFF895
:100800000C71B8420DD1F06A0768FF0303D5076881
:1008100047F480770760B06B18B1076847F48077BA
:1008200007602068504518BF48451BD0404518BF99
:10083000584517D0704518BF604513D0984218BF6F
:1008400090420FD088421CBF184988420AD000F05D
:1008500070F81CBF1649884204D000F067F81CBF2E
:10086000144988420268014642F001020A6004E02D
:100870004FF400603062357001252846BDE8F28FE4
:10088000DFF8A41088427047DFF884108842704770
:10089000DFF8801088427047DFF87C10884270478C
:1008A0001000024088000240B800024028040240C4
:1008B0005804024088040240A0040240B8040240E8
:1008C000085402581C5402583054025844540258D8
:1008D000585402586C540258805402583F8010FEFD
:1008E0000010005CF8ABFDA70C4988427047DFF8A8
:1008F000581088427047DFF854A0DFF824B0DFF8C2
:100900002480DFF84C905045704700009454025802
:100910004004024010040240A00002407000024067
:100920005800024040000240700402400D4A9042CC
:1009300070470B4A90427047064FDFF81C80DFF883
:100940001C90DFF80CA07047A00402401000024089
:10095000280002407000024058000240400002405F
:1009600040040240700402402DE9FE4F044600207E
:10097000DFF80819DFF808B9DFF80879DFF8088927
:10098000DFF89C99DFF89CA901904FF416500A6893
:10099000B2FBF0F0029004F134050822686A00907E
:1009A000014601230E680168D4F800C0DC4518BF79
:1009B000D44531D0CC4518BFC4452DD0BC451CBF53
:1009C000DFF864E9F44527D0DFF86CEAF4451CBF92
:1009D000DFF858E9F4451FD0DFF860EAF4451CBFA2
:1009E000DFF84CE9F44517D0DFF854EAF4451CBFB2
:1009F000DFF840E9F4450FD0DFF848EAF4451CBFC2
:100A0000DFF834E9F44507D0DFF83CEAF4451CBFD1
:100A1000DFF838EAF44541D100F03EFB02FA00F07D
:100A2000064200F09780DC4518BFD44531D0CC4554
:100A300018BFC4452DD0BC451CBFDFF8EC08844569
:100A400027D0DFF8F4198C451CBFDFF8E008844597
:100A50001FD0DFF8E8198C451CBFDFF8D4088445A7
:100A600017D0DFF8DC198C451CBFDFF8C8088445B7
:100A70000FD0DFF8D0198C451CBFDFF8BC088445C7
:100A800007D0DFF8C4198C451CBFDFF8C0098445C6
:100A90004AD16146086800F0040049E0DFF81C69AB
:100AA000B4451CBFDFF81869B44518D0DFF81469E5
:100AB000B4451CBFDFF81069B44510D0DFF80C69ED
:100AC000B4451CBFDFF80869B44508D0DFF80469F5
:100AD000B4451CBFDFF81066B44540F0DB826646C3
:100AE0004FF0040E366895F828C00CF01F0C0EFA73
:100AF0000CFE11EA0E0FCDF800E000F04A825FEA2A
:100B0000467E40F1468200994160300440F1FB810D
:100B1000F10300F136826969002900F0BB822046AA
:100B200003B0BDE8F04F08476046006800F00800D9
:100B300080B16046016821F00401CCF8001095F8FE
:100B40002800009900F01F0082408A60286A40F067
:100B50000100286200F0A0FA26FA00F1CA073DD58C
:100B60002168594518BF51452ED0494518BF414508
:100B70002AD0B9421CBFDFF8B027914224D000F040
:100B8000AEFA1CBFDFF8A42791421DD000F0A3FAF3
:100B90001CBFDFF89C27914216D000F094FA1CBFCE
:100BA000DFF8902791420FD000F089FA1CBFDFF8E0
:100BB0008827914208D0DFF8902891421CBFDFF8C7
:100BC0008C28914240F0928049690A0606D58340FC
:100BD00000988360296A41F002012962042100F033
:100BE0005BFA01FA00F006423FD02168594518BF70
:100BF000514531D0494518BF41452DD0B9421CBFA0
:100C0000DFF82427914227D0DFF82C3899421CBF07
:100C1000DFF8182791421FD0DFF8203899421CBF17
:100C2000DFF80C27914217D0DFF8143899421CBF27
:100C3000DFF8002791420FD0DFF8083899421CBF37
:100C4000DFF8F426914207D0DFF8FC3799421CBF49
:100C5000DFF8F82791424CD10B689A0705D5009927
:100C60008860286A40F004002862102095F8281057
:100C700000F017FA5ED02068584518BF504531D0B3
:100C8000484518BF40452DD0B8421CBFDFF8982614
:100C9000904227D0DFF8A03798421CBFDFF88C269F
:100CA00090421FD0DFF8943798421CBFDFF88026AF
:100CB000904217D0DFF8883798421CBFDFF87426BF
:100CC00090420FD0DFF87C3798421CBFDFF86826CF
:100CD000904207D0DFF8703798421CBFDFF86C27CE
:100CE000904209D1006800F0080009E00846016858
:100CF00074E70A461068B8E70346186800F0040075
:100D0000C0B100988160206801684A0307D5006877
:100D100001030BD5696969B1204688470AE001687B
:100D2000CA0503D4016821F008010160E96809B12E
:100D30002046884795F82810202000F0B2F93ED0D0
:100D40002068584518BF504531D0484518BF404528
:100D50002DD0B8421CBFDFF8D025904227D0DFF855
:100D6000D83698421CBFDFF8C42590421FD0DFF868
:100D7000CC3698421CBFDFF8B825904217D0DFF878
:100D8000C03698421CBFDFF8AC2590420FD0DFF888
:100D9000B43698421CBFDFF8A025904207D0DFF898
:100DA000A83698421CBFDFF8A426904203D1006801
:100DB00000F0100002E0006800F00200002846D0B9
:100DC0000098816020686978042927D1026822F0A0
:100DD000160202602068416921F080014161E868E3
:100DE000002804BF6869002804D02068016821F049
:100DF000080101603F2095F82810009A01F01F01BA
:100E0000884090600021012068702970E9690029FC
:100E10001FD0204603B0BDE8F04F084701684A03E1
:100E200007D5006801030ED4296981B1204688479F
:100E30000DE00168CA0506D4016821F010010160C7
:100E4000012000F034F9A96809B120468847286AD2
:100E5000002800F01F81286AC10753D5042068705C
:100E60002068584518BF50452DD0484518BF40450B
:100E700029D0B8421CBFDFF8B014884223D0DFF875
:100E8000B82590421CBFDFF8A41488421BD000F0A4
:100E90001EF91CBFDFF89814884214D0FFF749FDF3
:100EA0001CBFDFF8901488420DD0FFF73FFD1CBF38
:100EB000DFF88414884206D000F0FDF81CBFDFF88C
:100EC0008C15884215D120680268520801465200EC
:100ED0000A600298019A521C01929042216802D342
:100EE0000A68D307F6D40868C1074CBF0320012065
:100EF00006E02168086840080A4640001060E8E7FC
:100F000000F0D5F8BFE0B0063BD42068584518BFC4
:100F100050452DD0484518BF404529D0B8421CBF88
:100F2000DFF80414884223D0DFF80C2590421CBF60
:100F3000DFF8F81388421BD000F0C9F81CBFDFF8B7
:100F4000F013884214D0FFF7F4FC1CBFDFF8E41361
:100F500088420DD0FFF7EAFC1CBFDFF8DC138842A3
:100F600006D000F0A8F81CBFDFF8E014884203D1D7
:100F7000026822F0080202E0026822F00402014640
:100F80000A60E968002918D0204603B0BDE8F04F98
:100F900008474FF0020E0EFA0CFE11EA0E0FCDF8C4
:100FA00000E058D05FEA867E55D500994160300454
:100FB00009D5F10348D4296900296BD0204603B034
:100FC000BDE8F04F0847B0063ED42068584518BF2A
:100FD00050452DD0484518BF404529D0B8421CBFC8
:100FE000DFF84413884223D0DFF84C2490421CBF22
:100FF000DFF8381388421BD000F069F81CBFDFF817
:101000003013884214D0FFF794FC1CBFDFF8241380
:1010100088420DD0FFF78AFC1CBFDFF81C13884202
:1010200006D000F048F81CBFDFF82014884203D136
:10103000026822F0140202E0026822F00A0201466D
:1010400001200A6000F033F8A96819B3204603B004
:10105000BDE8F04F084702FA0CF211421AD03107EE
:1010600018D522681668114626F00E060E6001217A
:1010700095F8282002F01F02934043600120286267
:10108000697000202870A96921B1204603B0BDE82D
:10109000F04F0847BDE8F78F95F8280000F01F00D3
:1010A000704701F01F0100FA01F10E4270476870AD
:1010B000002129707047DFF8902390427047DFF8D5
:1010C000842391427047DFF8782391427047DFF81C
:1010D0006C2390427047DFF8642391427047DFF839
:1010E0005823914270470000945402582DE9F84F5C
:1010F0000446DFF88CA1A56DDFF82CB2DFF884C1BF
:10110000DFF884E1DFF81882DFF81892009526688E
:10111000564518BF4E4543D0464518BF76453FD08B
:10112000664518BF5E453BD0DFF80C0386421CBF06
:101130007E4FBE4234D0DFF8040386421CBF7C4F92
:10114000BE422DD0DFF8F80286421CBF794FBE4266
:1011500026D0DFF8F00286421CBF774FBE421FD078
:10116000DFF8E40286421CBFDFF8E072BE4217D00F
:10117000924886421CBF924FBE4211D0914886428F
:101180001CBF914FBE420BD0904886421CBF904F6F
:10119000BE4205D08F4886421CBFAD4FBE425BD1D8
:1011A000676EA06E7860E06E10B1276F606F786038
:1011B000564518BF4E4525D0464518BF764521D027
:1011C000664518BF5E451DD09B4886421CBF5748E8
:1011D000864217D0994886421CBF5548864211D096
:1011E000974886421CBF534886420BD0954886429A
:1011F0001CBF5148864205D0934886421CBF934885
:10120000864215D194F85C50DDF800B03F2005F01F
:101210001F05A840CBF80800306820F4802030601B
:101220007360A068402825D0B160F260BDE8F18FFE
:10123000624886421CBF6248864210D0614886429E
:101240001CBF614886420AD0604886421FBF604882
:1012500086426048864202D07D488642E6D194F8B4
:101260005C70012007F01F07B84068607360A068D9
:101270004028D9D1B260F160D8E700000C0000101E
:1012800010000240700002405800024070B5016832
:10129000704A91421CBF234B994229D0204A914267
:1012A0001CBF6D4B994223D06C4A91421CBF1E4B10
:1012B00099421DD0FFF713FF1CBF1C4B994217D05A
:1012C000FFF709FF1CBF1A4B994211D0FFF7FBFE35
:1012D0001CBF184B99420BD0FFF7F1FE1CBF164BF9
:1012E000994205D0584A91421CBF584B994211D19E
:1012F00001F0FF02103A1823B2FBF3F20FF2A01430
:1013000002F00705890A665DC6658902042A03D3CF
:10131000091D01E0090A09028165084670BD000047
:10132000400002402800024088000240B80002400D
:1013300028040240580402408804024070B5046842
:101340001E4D01222346AC421CBF1D4EB44211D09B
:101350001C4DAC421CBF1C4EB4420BD01B4DAC42CA
:101360001CBF1B4EB44205D01A4DAC421CBF384EB8
:10137000B4420DD104F0FF0108391423B1FBF3F19D
:10138000374B384D03EB810301F01F018A4011E018
:1013900004F0FF0110391824B1FBF4F43249CB18E2
:1013A000A92B38BF0834314B314D03EB840304F0D3
:1013B0001F04A24045660366826670BD0854025849
:1013C0001C5402583054025844540258585402587D
:1013D0006C540258805402580179002900D170479A
:1013E00030B5092927D20268224B9A421CBF224DF0
:1013F000AA4211D0214B9A421CBF214DAA420BD0C8
:10140000204B9A421CBF204DAA4205D01F4B9A4246
:101410001CBF0F4DAA4204D11D4B1E4A03EB810491
:1014200003E01D4A02EB81041C4A0267491E0122A7
:101430008A40C466426730BDA000024010040240EA
:101440004004024070040240A0040240B80402407C
:1014500094540258100002405800024070000240AC
:101460000058025880580258F0FBFDBF00080240A7
:1014700080080240085402581C5402583054025844
:1014800044540258585402586C540258805402581C
:10149000FC58025840590258FC08024040090240DA
:1014A000000610160006101601484068704700BF7D
:1014B000000000102DE9F047044600262068DFF800
:1014C000A0590101B04620D5606E48B1B0F5801F2B
:1014D00009D0B0F5001F13D0B0F5401F07D012E0BF
:1014E00000F083FB05E0022100F085FB064630009A
:1014F0000AD1296C606E21F440110143296404E093
:1015000000F07CFBF2E70126B0462068C1051CD53F
:10151000606D042817D8DFE800F0030E12050500FF
:1015200000F063FB30000FD1296C606DC90840EA00
:10153000C101296409E000F05DFB0646F2E70021E5
:1015400000F04FFBF9E70126B0462068810520D561
:10155000A06D48B1402812D0802814D0C02818BFF0
:10156000B0F5807F02D012E000F03FFB30000FD1D9
:10157000296CA06D21F4E0710143296409E000F0B9
:1015800039FB0646F2E7002100F02BFBF9E70126C4
:10159000B0462068410504F1840723D5386A60B15C
:1015A000B0F5001F14D0B0F5800F15D0B0F5C00F06
:1015B00018BFB0F5000F02D012E000F016FB3000AB
:1015C0000FD1A96C386A21F460010143A96409E0D4
:1015D00000F010FB0646F2E7002100F002FBF9E7FD
:1015E0000126B0462068010523D5786A60B1B0F1C4
:1015F000807F14D0B0F1007F15D0B0F1407F18BFCC
:10160000B0F1806F02D012E000F0EFFA30000FD19D
:10161000A96C786A21F0E0610143A96409E000F057
:10162000E9FA0646F2E7002100F0DBFAF9E70126C5
:10163000B046206881011AD5A06C40B1102804D0B2
:1016400020280DD0302802D00FE000F0CEFA300074
:101650000CD1E96BA06C21F030010143E96306E095
:10166000022100F0C8FA0646F1E70126B0462068DC
:10167000C10423D5E06D60B1B0F5805F14D0B0F542
:10168000005F15D0B0F5405F18BFB0F5804F02D0B5
:1016900012E000F0AAFA30000FD1296CE06D21F4BD
:1016A000E0410143296409E000F0A4FA0646F2E7AC
:1016B000002100F096FAF9E70126B046206881047F
:1016C00022D5206E90B1B0F5803F0BD0B0F5003F31
:1016D00015D0B0F5403F1CBFB0F5802FB0F5A02F5E
:1016E00004D00FE0012100F086FA064630000AD14E
:1016F000296C206E21F4E0210143296404E000F00C
:101700006FFAF2E70126B0462068410422D5B86A94
:1017100090B1B0F1805F0BD0B0F1005F15D0B0F1A7
:10172000405F1CBFB0F1804FB0F1A04F04D00FE07C
:10173000012100F060FA064630000AD1A96CB86AAF
:1017400021F0E0410143A96404E000F049FAF2E726
:101750000126B046206801041AD5E06E40B1B0F110
:10176000805F03D0B0F1005F0BD00FE000F03DFAD6
:1017700030000CD1296CE06E21F040510143296406
:1017800006E0012100F037FA0646F1E70126B046EF
:101790002068C10118D5606C032813D8DFE800F079
:1017A00004020D0400F021FA30000CD1E96B606CEA
:1017B000890840EA8101E96306E0022100F01BFA92
:1017C0000646F1E70126B046206841023FD5DFF822
:1017D0002099D9F8000040F48070C9F80000FFF7A4
:1017E00063FE8246D9F80000C10506D4FFF75CFE0F
:1017F000A0EB0A006528F5D327E0300026D1286E3B
:10180000F96A00F4407001F4407188420BD0286EF0
:10181000296E41F48031296620F44070296E21F44C
:10182000803129662866F86AB0F5807F2BD1FFF7F2
:101830003BFE8146286E810725D4FFF735FEA0EBDD
:10184000090041F289318842F4D30326B046217859
:10185000C80738D5A16F69B1082907D010292DD044
:1018600018291CBF2029282904D02AE0012100F0D2
:10187000C2F90646300025D1696CA06F21F038010D
:10188000014369641FE0F86A00F44071B1F5407FDC
:1018900009D12A68DFF8681822F47C5201EA101195
:1018A0000A432A6003E0286820F47C502860286EF0
:1018B000F96AC1F30B0108432866C8E700F090F904
:1018C000D7E70126B0462178880719D5616F052929
:1018D00014D8DFE801F0070310070707012100F023
:1018E0008AF9064630000AD1696C606FC90840EA7F
:1018F000C101696404E000F073F9F2E70126B04623
:101900002178480719D5F968052914D8DFE801F0CE
:10191000070310070707012100F06DF906463000A4
:101920000AD1A96CF868C90840EAC101A96404E0B9
:1019300000F056F9F2E70126B0462178880621D555
:10194000B96889B1B1F1805F0BD0B1F1005F14D0FB
:10195000B1F1405F1CBFB1F1804FB1F1A04F03D096
:101960000EE000F047F9064630000AD1696CB8680D
:1019700021F0E0410143696404E000F03FF9F2E73F
:101980000126B0462178480621D5796989B1B1F59B
:10199000806F0BD0B1F5006F14D0B1F5406F1CBF54
:1019A000B1F5805FB1F5A05F03D00EE000F022F941
:1019B000064630000AD1A96C786921F4E051014350
:1019C000A96404E000F01AF9F2E70126B046217894
:1019D000080621D5B96989B1B1F5005F0BD0B1F521
:1019E000804F14D0B1F5C04F1CBFB1F5004FB1F519
:1019F000204F03D00EE000F0FDF8064630000AD17B
:101A0000A96CB86921F460410143A96404E000F0C5
:101A1000F5F8F2E70126B0462178080710D5D4F88A
:101A20008010B1F5805F04D100F0E8F808B14FF004
:101A30000108696CD4F8800021F4405101436964C5
:101A40002178C8060ED53969B1F5807F04D100F040
:101A5000D5F808B14FF00108A96C386921F440713C
:101A60000143A9642168080319D5F96931B1B1F5B9
:101A7000803F0FD0B1F5003F03D00EE000F0BBF87F
:101A8000064630000AD1A96CF86921F440310143BF
:101A9000A96404E000F0B2F8F2E70126B04621683C
:101AA00048031BD53968B1F5801F06D0B1F5001F7A
:101AB0000ED0B1F5401F02D00EE000F08CF83000DF
:101AC0000BD1696C386821F440110143696405E069
:101AD00000F086F80646F2E70126B0462168C80302
:101AE00017D5E16C19B1B1F5803F0BD00FE000F0D4
:101AF00072F830000CD1E96BE06C21F480310143C5
:101B0000E96306E0022100F076F80646F1E70126D7
:101B1000B0462168880004D500F070F808B14FF095
:101B200001082168880318D5E16F59B1B1F5807FAC
:101B300006D0B1F5007F18BFB1F5407F02D00AE0B2
:101B400000F049F8300007D1696CE06F21F4407172
:101B50000143696401E00126B0462068C10205D551
:101B60002A6C206F22F0004202432A642168C800D8
:101B700005D52968386B21F480410143296021682B
:101B8000880205D5296CA06E21F08071014329647B
:101B90002168480007D5296821F4004129602A6896
:101BA000786B02432A602168002905D5E96B206D16
:101BB00021F040510143E9632168080205D5696CB1
:101BC000786821F44001014369645FEA080018BFA6
:101BD0000120BDE8F087E86940F40030E861704713
:101BE000012104F1240000F0E4BAE96941F4003174
:101BF000E96170470021201D00F088BA022104F13C
:101C0000240000F0D6BA000078B50146B1F5807F17
:101C100089B0DFF8A006DFF8A026DFF8A036DFF8ED
:101C2000A0460BD1216D01F00701042916D8DFE889
:101C300011F0A30056003E0062008300B1F5007F62
:101C40000DD1216D11F4E07123D0402947D08029B6
:101C50002DD0C0294FD0B1F5807F6DD0EEE0B1F529
:101C6000806F10D1A16D11F4600112D0B1F5001F89
:101C700035D0B1F5800F1AD0B1F5C00F3BD0B1F51A
:101C8000000F59D0DAE0B1F5006F14D1A16D11F059
:101C9000E06171D0B1F1807F21D0B1F1007F06D039
:101CA000B1F1407F27D0B1F1806F45D0C6E0206808
:101CB00081001BD4C2E0B1F5805F1FD1216D11F40A
:101CC000E04159D0B1F5805F09D0B1F5005F0AD08D
:101CD000B1F5405F0FD0B1F5804F2DD0AEE0206858
:101CE00001011CD4AAE020688100FBD5684600F001
:101CF000F1F80098A3E0DFF8CC05A0E0B1F5002FE3
:101D00002FD1A16D11F4403106D0B1F5803F0BD039
:101D1000B1F5003F10D091E020680101FBD503A888
:101D200000F0A0F803988AE020688100F3D56846A7
:101D300000F0D0F8029882E0E16C25686E0701F0AF
:101D4000405101D500294CD02368DD0502D5B1F101
:101D5000805F4FD02268930370D5B1F1005F6ED0E1
:101D60006CE0B1F5803F13D1E06C10F4803003D00B
:101D7000B0F5803F04D061E02068810151D45DE07E
:101D8000206801015AD503A800F06CF8059856E0C8
:101D9000B1F5804F30D1A16D11F0E0410FD0B1F11C
:101DA000805F0FD0B1F1005F10D0B1F1405F15D06E
:101DB000B1F1804F1BD0B1F1A04F2BD03EE000F02D
:101DC00040F83CE02068010133D437E0206881000E
:101DD00034D5684600F07EF8019830E0206841076D
:101DE0002CD52168C1F3C10123FA01F027E0206856
:101DF000C10523D5104622E0B1F5004F1ED1216D5B
:101E000011F0405106D0B1F1805F07D0B1F1005F11
:101E10000CD013E021688A0311D40FE020688101FF
:101E20000CD506A800F028F9079808E02068010101
:101E300004D503A800F016F8049800E000200AB0CA
:101E400070BD80B500F0D9FADFF87C24DFF87C148F
:101E50001368C3F30212895C01F01F01C84002BD80
:101E60001044025830B500F093F8C2F30015DA6B55
:101E7000C2F3CC02C1F3053100F097F826D000F090
:101E80008DF803D0022C0AD006D30CE000F0DAF86B
:101E9000996B00F06EF80FE000F056F807E0996BD0
:101EA00000F08AF806E0DFED911AC1EEA00A996B06
:101EB00000F050F820EE800A996B00F0ACF8996BB6
:101EC00000F09AF8996B00F08AF801E000F0B4F89D
:101ED00036E0000030B500F05BF8C2F300255A6C24
:101EE000C2F3CC02C1F3055100F05FF826D000F038
:101EF00055F803D0022C0AD006D30CE000F0A2F86B
:101F0000196C00F036F80FE000F01EF807E0196CCD
:101F100000F052F806E0DFED751AC1EEA00A196C68
:101F200000F018F820EE800A196C00F074F8196CB3
:101F300000F062F8196C00F052F801E000F07CF853
:101F400080ED020A30BD00009FED682AC2EE200A33
:101F500070470000C1F3080101EE101AB8EE411AF3
:101F6000DFED641A00EE211AB7EE000A31EE000A26
:101F70007047C1F3080101EE101AB8EE411A31EEB4
:101F8000000AF7EE001A70EE211A20EEA10A70473F
:101F9000DFF82C339C6A996ADA6A704700EE901A6F
:101FA00014F00304F8EE600A7047554300EE105A2F
:101FB0000029B8EE400A70479FED4F1AC1F308019F
:101FC000C1EE200A01EE901AF8EE611A9FED4B1A4D
:101FD00040EE011AB7EE000A31EE800A7047C1F3F5
:101FE000066100EE901AF8EE600A70EE810A80EE4B
:101FF000200ABCEEC00A7047C1F3064100EE901AF9
:10200000F8EE600A70EE810AC0EE200AFCEEE00AEB
:10201000C0ED010A7047C1F3462100EE901AF8EEB8
:10202000600AB7EE001A70EE810AC0EE200AFCEEDC
:10203000E00AC0ED000A70470160002242609FED97
:10204000310A704719689FED2B1A8A0620EE010AA3
:102050000CD51968DFF86442C1F3C101CC4001EE30
:10206000104AB8EE411AC1EE200A70479FED262AA9
:10207000C2EE200A7047000030B5DFF844329C6A97
:10208000996ADD6A5A6B05F00105C2F3CC02C1F30F
:102090000511FFF78AFF26D0FFF780FF03D0022C3F
:1020A0000AD006D30CE0FFF7CDFF196BFFF761FFF5
:1020B0000FE0FFF749FF07E0196BFFF77DFF06E030
:1020C000DFED111AC1EEA00A196BFFF743FF20EEF6
:1020D000800A196BFFF79FFF196BFFF78DFF196BD4
:1020E000FFF77DFF01E0FFF7A7FF29E70024744A0F
:1020F000004802580000003920BCBE4B00000039E7
:10210000CFFFFF00000000000024744CF8B500F081
:10211000C8F801D10120F2BD286820F0806000F0ED
:10212000B9F807462868010106D5FFF7BDF9C01BBD
:102130000328F7D30320F2BDA86A316820F47C306D
:1021400040EA013000F08EF8A863E96A706921F076
:10215000C00100F0A2F8B06921F0200100F09DF864
:1021600021F01001E962E86B00F076F8E863E86AB4
:1021700040F01000E8621CB9E86A40F4002006E074
:10218000E86A012C0CBF40F4801040F40010E862B3
:10219000286840F0806000F07DF80446286801015E
:1021A00005D4FFF781F9001B0328F7D3C2E700200D
:1021B000F2BDF8B500F075F801D10120F2BD286834
:1021C00020F0805000F066F807462868810006D5A8
:1021D000FFF76AF9C01B0328F7D30320F2BDA86AF2
:1021E000316820F07C7040EA015000F03BF8286430
:1021F000E96A706921F4406100F04FF8B06921F498
:10220000007100F04AF821F48071E962686C00F016
:1022100023F86864E86A40F48070E8621CB9E86AF0
:1022200040F4800006E0E86A012C0CBF40F4000096
:1022300040F08070E862286840F0805000F02AF892
:1022400004462868810005D4FFF72EF9001B0328F7
:10225000F7D3C2E70020F2BDF1696FF3CF0040EA87
:10226000C1007047A862B1687068491E401E4902EB
:10227000C0F3080001F47E410843F168491E0904D7
:1022800001F4FE0108433169491E090601F0FE41CF
:10229000084370472860FFF707B90143E962E96A1C
:1022A0007047074D0646A86A00F0030003280C4655
:1022B0007047000040787D0100093D000090D00388
:1022C000004402580080BB0020440258B83F100868
:1022D00030B55A4B5B48196911F0380104D0102908
:1022E0000AD018290AD07EE01A6891067CD51968B0
:1022F000C1F3C101C84030BD554830BD9C6A996AE0
:10230000DD6A5A6B05F00105C2F3CC02C1F3051179
:10231000554300EE105A0029B8EE400A61D000EE95
:10232000901A14F00304F8EE600A03D0022C25D0B2
:102330001FD337E019689FED3D1A8A0620EE010A87
:1023400008D51968C1F3C101C84000F051F8C1EEC9
:10235000200A03E09FED362AC2EE200A00F045F87D
:1023600031EE000AF7EE001A70EE211A20EEA10AF3
:1023700028E09FED302AC2EE200A17E0186B9FED8F
:102380002E1AC0F30800C1EE200A01EE900AF8EE02
:10239000611A9FED261A40EE011AB7EE000A31EEDF
:1023A000800A0DE0DFED231AC1EEA00A00F01DF84F
:1023B000DFED1E1A00EE211AB7EE000A31EE000A18
:1023C00020EE800A186BC0F34620401C00EE900AF5
:1023D000F8EE600A80EE200ABCEEC00A10EE100A89
:1023E00030BD002030BD1B4830BD186BC0F3080065
:1023F00001EE100AB8EE411A704780B5FFF768FF8A
:102400001549124B0A68C2F303229A5C096802F06C
:102410001F0201F00F01D0405A5C09490A4B02F03B
:102420001F02D0400860186002BD000000000039A3
:102430000024744C0024744A20BCBE4B0044025853
:102440000C0000100090D00310000010B83F1008DE
:1024500040787D0100093D0018440258C06800F42E
:102460004060401E8041C00F7047CB0D10B5143046
:1024700003F004031818090D01F01F010368072475
:102480008C40A34302FA01F11943016010BDF8B575
:1024900004460020002500900CB90120F2BD04F193
:1024A0003806F06928B9204600F09DFC0020306213
:1024B000307621688868800004D58A68DFF8B40225
:1024C00002408A6021688868C00016D48A68DFF8F4
:1024D000A802024042F080528A60DFF8A012DFF8C2
:1024E000A0220868B0FBF2F2521C009202E00098B1
:1024F000401E009000980028F9D121688868C0002B
:1025000008D4F26942F01002F2610125306A40F00D
:10251000010030628868F269D30600D4400700F1F8
:102520009B80F26922F4807242F00202F2618868B4
:10253000C00716D4DFF84C32DFF84C22994218BF9E
:10254000914200F090F80CD1994216BF9142DFF809
:102550003C12DFF83C120A68606822F47C120243E5
:102560000A6000F0EFFC41F2040188420CD3A0683D
:10257000102809D1607D216B41EA4031207F41EA7A
:10258000004141F01C0108E0607D216B227F41EA9F
:102590004031A068014341EA0241207F012803D174
:1025A000206A401E41EA4041606A20B100F4787020
:1025B0000143A06A01432268DFF8D801D3680340D1
:1025C0001943D16021688A688868520730D40007AF
:1025D0002ED4CA68DFF8C001237D0240E06A42EAD7
:1025E00083320243CA603178012912D12268DFF8B0
:1025F000AC01136971680340491EB06843EA0143A6
:10260000F168034330690B43034343F00103136153
:1026100004E02068016949084900016121680A69EC
:10262000606B22F0704202430A61204600F0F1FA2A
:10263000E06801282068016B05D1A2690909521ED2
:1026400042EA011101E00909090101630120F16970
:1026500060F30101F16104E0F06940F01000F06105
:1026600001252846F2BD07D1DFF85404DFF8547481
:1026700000683F68384302E0DFF84C04006810F05F
:10268000010070470C688068400704F01F04704721
:102690002DE9F84305460E462868DFF8E810DFF814
:1026A000E8809146884216BF4045DFF8E010DFF829
:1026B000E010FFF7E7FF5AD405F1500739780129F8
:1026C00055D001203870002C1CBF052C092C4BD193
:1026D000284600F008FA010043D17968DFF8980431
:1026E000014041F4807179602968414500D11CB9ED
:1026F000786820F4801078607868C10446BFB868B4
:1027000020F006000020B8604B46E86C0FF26D41E7
:10271000C163E86C0FF2DD410164E86C0FF2DD414A
:10272000C1641C212A681160002038702868416843
:1027300041F0100141602968E86ACA68920840EADD
:102740008200C8603246286800F14001E86CFDF75D
:1027500071FF2A68084993680B4043F004039360B3
:1027600006E00021397003E000223A7000E0022008
:10277000BDE8F283C0FFFF5FC0FFFF7F0C000010C9
:10278000400D0300002002400021024008230240C7
:102790000863025803C0F0FFFCBFFFFF1EF800FCF7
:1027A0002DE9FC418046002008F1500600900025EC
:1027B0003278012A08BF022000F07E8101203070AB
:1027C000D8F800008268520700F16E810F46396820
:1027D0000A030EBFC1F3846191FAA1F1B1FA81F14C
:1027E0000124C26901F01F0104FA01F11143C16122
:1027F0007968D8F8002038688B09303203F00C0370
:102800009A1801F01F01D2F800C01F238B40C0F3BB
:1028100084602CEA030300FA01F119431160D8F82F
:10282000000082688168520778D4090776D4BA68B4
:102830003968FFF71AFE7869D8F80010DFF8E0244D
:102840001368CA6803F07043B3F1805F02D0D30607
:10285000CA6804D49208530003F00E0303E0920800
:10286000530003F008033A6998403B68042A2DD0CE
:10287000603101EB820103F0F8430A6802F0004284
:10288000104318430860787E01280CBF4FF00040C9
:102890000020D8F800103A69603101EB82010B6822
:1028A00023F0004318430860387E01280CBF4FF422
:1028B00000600020D8F800203969136901F01F0179
:1028C00023F4F04388401843106127E0086E00F0BD
:1028D000F840B0EB836F03D1086E20F0004008662B
:1028E000D8F80000416E00F0F8F803D1416E21F0F5
:1028F00000414166D8F80000816E00F0EEF803D187
:10290000816E21F000418166D8F80000C16E00F0B0
:10291000E4F803D1C16E21F00041C166D8F800107F
:102920008868C00700F1C580FA683B68D1F8C0C06C
:10293000DFF8F0E302F01802C3F313002EFA02F2FC
:102940002CEA000013400343C1F8C030F868DFF8F8
:10295000D81388424CD1386801030EBFC0F384619C
:1029600090FAA0F1B1FA81F1491C01F01F010A2986
:102970001BD2010306D1C0F38461C0F38462C0F3AB
:10298000846001E000F0A2F8491C521C890602F0A4
:102990001F02401C01F0F841944000F01F000C435E
:1029A00000EB400044EA00511DE0010306D1C0F3F2
:1029B0008462C0F38461C0F3846001E000F086F8B3
:1029C000521C491C401C920601F01F0100F01F0020
:1029D00002F0F8428C400A38144300EB400044EA0D
:1029E000005444F00071BA68D8F80000FFF73DFDCC
:1029F000396800295DD5D8F80020DFF83073DFF89A
:102A00003033DFF81803BA4216BF8242DFF824439E
:102A10001C46246804F0E074BA4218BF8242FFF7F3
:102A200022FE41D1DFF81073DFF81003B9421CD148
:102A300021023ED482423CD11868DFF80413DFF84B
:102A4000042320F0E070044344F400041C60086890
:102A5000B0FBF2F2521C52000092009800281EBFF8
:102A60000098401E0090F8D123E0DFF8DC72B942F4
:102A70000AD1E1011DD482421BD1186820F0E07018
:102A8000044344F080740DE0DFF8C072B94210D105
:102A900061020ED482420CD1186820F0E070044329
:102AA00044F480041C6004E0706840F02000706012
:102AB0000125002030702846BDE8F68100000000A6
:102AC00008200240082102400860025890FAA0F055
:102AD000B0FA80F10A46084670473A6801F0F841BA
:102AE000B1EB826F704770B5044621688868C207F1
:102AF00030D488686FF39E1020BB8868944D2840BE
:102B000040F001008860FEF7CFFC06462068874A47
:102B10008849904217D1086821680A68D00719D4FB
:102B20008868C00705D408468168294041F0010142
:102B30008160FEF7B9FC801B0328EDD32068016893
:102B4000CA07E9D40BE0754A904205D1086810F035
:102B50001F0FE1D0002070BD75480168DCE7606D93
:102B600040F01000606500F001F870BDA06D40F00D
:102B70000100A06501207047FEF1FFFF10B5846BD6
:102B8000616D11F0500F28D1606D40F400706065E8
:102B900021680868020708460BD5FFF75FFCB8B14B
:102BA0002068C168880413D4616D21F48071616567
:102BB00007E0C16811F0030F0AD1606D20F4807046
:102BC0006065606DC10403D4606D40F00100606514
:102BD0002046BDE8104000F0C7B9616DCA0604D5B3
:102BE0002046BDE8104000F0C0B9E16CCA6CBDE8F9
:102BF00010401047806B00F0B9B90000806B416D48
:102C000041F040014165816D41F00401816500F0B2
:102C1000ACB938B504464549206888421CBF3F4AD4
:102C2000904230D14348016811F4403F30D14FF415
:102C30000020FEF7E9FF05466068B0F5802F18BF59
:102C4000B0F5002F1CD0B0F5402F18BFB0F5801F95
:102C500016D0B0F5A01F18BFB0F5C01F10D0B0F54A
:102C6000E01F28D0B0F5001F27D0B0F5101F26D0E8
:102C7000B0F5201F25D0B0F5301F08BF2D0A21E088
:102C8000800C400014E02A48016811F4403FCED087
:102C9000FFF7B3FB05466068B0F5803F18BFB0F59D
:102CA000003F04D0B0F5403F08BFAD080AE0000C7B
:102CB000B5FBF0F506E02D0904E06D0902E0AD0971
:102CC00000E0ED0900F03EF941F20401884209D22A
:102CD0002068204A8168954234BF21F4807141F414
:102CE000807119E06D081C4920688D4203D282680A
:102CF00022F440720BE019498D4238BF012103D301
:102D000017498D4205D20221826861F3092282604F
:102D100031BD816841F44071816031BD00210240C4
:102D20000010005CFFFF0F000000FF470020024082
:102D30000863025808230240000084CB0060025858
:102D40000C000010400D0300000052C70000B8CF77
:102D5000C0FFFF7F012D3101115E5F0021BCBE006D
:102D600041787D0118B587B01C220021684600F02B
:102D7000FEF8504C50482060002108202061A160DE
:102D800001206075A06121754FF480604FF48C6163
:102D9000A06261624FF48050002203212063E26050
:102DA0002277E162626384F838202046FFF76FFBE8
:102DB00008B100F045F906210191002240F2FF71AF
:102DC0000391029200213D480090042205918DF864
:102DD0001910049269462046FFF7E2FC08B100F0A2
:102DE0002FF908B010BD78B5B5B004461422002103
:102DF00001A800F0BCF8BC22002106A800F0B7F83A
:102E000020682D49884252D14FF400222021069299
:102E1000079181220221089209910A910B91402287
:102E200000210C920D910E912E9106A8FEF742FB07
:102E300008B100F005F92248224E016841F0807186
:102E400001604FF48075026802F080720092009970
:102E5000026842F0200202600321006800F02000B6
:102E6000009000220098184802910392019501A950
:102E700000F002F915483060732171604FF4006072
:102E80004FF48061706131614FF4403000224FF4A3
:102E900000513062B260F260B1617262F561304639
:102EA000FDF7FAF908B100F0CBF8E664B46336B088
:102EB00070BD00005C080010006002588000501DCA
:102EC000E0440258E40700100014025810000240C9
:102ED00080B5DFF87800016841F48041016081210C
:102EE000006800F4804000900098DFF864000268F9
:102EF00061F313220260036843F0010303600320BF
:102F000000F0E7F9FFF7E4F91249134B0A68096882
:102F1000C2F3032201F00F019A5C595C0F4B02F0DF
:102F20001F02D04001F01F010D4AC8401060186018
:102F3000002000F031FA08B1012002BD00F04EFA85
:102F4000002002BD07480068000C7047D8440258B2
:102F50000044024018440258B83F10081000001006
:102F60000C0000100010005C70477047704710B5EF
:102F7000044610460A460146204600F03FFA204625
:102F800010BD0EE002684368024408305FEAC37C6B
:102F900044BF4B445B1E52F804CB43F804CB091FDB
:102FA000F9D150F8041B0029ECD170471CB52A4810
:102FB000016841F000710160006800F0007000904D
:102FC0000120009900F04EFA00F054FA23492448F9
:102FD0000A68C2F30311072904D1016841F0010115
:102FE000016003E0016941F001010161FFF770FF39
:102FF00000F048FAFFF7B6FE00F05CFA00F0B0FA15
:10300000184C204600F030FB0421204600F089FBDC
:103010004FF47A7214491548154CFFF739FB042117
:10302000204600F027F941F2883000F015FF042116
:10303000204600F01FF94FF4FA7000F00DFFEEE7A4
:1030400080B572B64FF400510A4800F013F94FF4FE
:103050007A7000F001FFF5E7E044025800ED00E06F
:1030600004650258C0080010140000105C0800102D
:1030700000240258002002582DE9F84F0027DFF8FD
:103080000422DFF804824FF0B04305460E463AE0D2
:10309000DFF8F841A54214BF0A2409248C40DFF868
:1030A000F01144EA0E0441F82C40C143D3F800C0AB
:1030B000746801EA0C0CE40248BF40EA0C0CC3F847
:1030C00000C0D3F804C0746801EA0C0CA40248BF25
:1030D00040EA0C0CC3F804C0D2F804C0746801EADA
:1030E0000C0CA40348BF40EA0C0CC2F804C0D2F890
:1030F00000C001EA0C0C7168C90348BF40EA0C0C1F
:10310000C2F800C07F1C316831FA07F000F0AC80D3
:103110000124BC4014EA0100F4D04FEA470C03211B
:1031200001FA0CF16FEA010E716801F00309B9F1BF
:10313000010F1CBF01F00301022912D1A968D6F8C2
:103140000C900EEA010109FA0CF949EA0101A960A3
:10315000696821EA04047168C1F30011B9400C43A5
:103160006C60B900347904F00304032C23D0EC68BC
:10317000D6F808900EEA040409FA0CF949EA0404A6
:10318000EC60347904F00304022C14D1FC0805EB44
:10319000840401F01C09D4F820A04FF00F0B0BFAA7
:1031A00009FB2AEA0B0AD6F810B00BFA09F949EA2A
:1031B0000A09C4F820902C680EEA040E347904F051
:1031C000030404FA0CF444EA0E0CC5F800C0746859
:1031D00014F4403F96D0D8F800C02D4C4CF0020CAF
:1031E000C8F800C04FEA970CD8F800E00EF0020EC5
:1031F000CDF800E001F00C01DDF800E054F82C40BF
:103200004FF00F0E0EFA01FE24EA0E0E214CA542DD
:1032100008BF002427D0204CA54208BF012422D09B
:103220001E4CA54208BF02241DD01D4CA54208BF5C
:10323000032418D01B4CA54208BF042413D01A4CF9
:10324000A54208BF05240ED0184CA54208BF06248D
:1032500009D0174CA54208BF072404D0154CA5423D
:103260007FF416AF082419E7BDE8F18F02B909040D
:1032700081617047426901EA0203914341EA0341D7
:1032800081617047C0000058F4440258002402587D
:1032900008040058000002580004025800080258B0
:1032A000000C02580010025800140258001802586E
:1032B000001C0258002002580901020002D42E48C6
:1032C000815470472D4B02F00F021A4402F8041C7F
:1032D00070472B4B19684FF6FF020002114000F4B3
:1032E000E0600843274908431860704770B5244BD5
:1032F0001C68C4F302230124C3F10705052D2EBF6A
:103300000F2504FA05F56D1E1E1D072E34BF002380
:10331000DB1E2940994004FA03F3BDE870405B1EB0
:103320001A401143C8E70000010007D4012200F051
:103330001F01154B8A40400943F820207047401E6A
:10334000B0F1807F01D3012070471049104A4860D6
:103350000023F02010708B60072008600020704769
:103360000C480168C1F30310072801D103207047FE
:10337000012070470000000000E400E018ED00E0CC
:103380000CED00E00000FA0500E100E010E000E0D4
:1033900023ED00E000ED00E038B50E4D044628783E
:1033A000A8B10D4A13684FF47A71B1FBF0F0B3FB8A
:1033B000F0F0FFF7C4FF50B9102C08D200222146CC
:1033C0004FF0FF30FFF792FFAC60002032BD0120CC
:1033D00032BD00BF000000100C000010064881B094
:1033E000016841F002010160006800F002000090F5
:1033F000009801B0704700BFF444025862F30F22F6
:1034000062F31F42401810F0030308D0C91A1FD3FB
:10341000DB0748BF00F8012D28BF20F8022D13005C
:1034200030B414461546103928BF20E93C00FAD8BC
:10343000490728BF20E90C0048BF40F8042D890047
:1034400028BF20F8022D48BF00F8012D30BC70477E
:10345000C91818BF00F8012DCB0728BF00F8012DAF
:103460007047000002490A68104308607047000076
:103470001065025880B5FFF773FF032818BF40BFDF
:1034800020BF01BD80B50A48016841F0010101601B
:103490000022006800F001000090002100980B203D
:1034A000FFF724FFBDE802400B20FFF73DBF00BF40
:1034B000D844025838B586B01422002101A8FFF77D
:1034C00056FD2048204D0168204C41F0020101606A
:1034D000026802F0020200920099026842F48072CF
:1034E0000260036803F4807300930099026842F05D
:1034F00020020260036803F0200300930099026831
:1035000042F4007202600122006800F40070009032
:103510004FF4005100982846FFF7A8FE012204212D
:103520002046FFF7A3FE4FF4005100F011F82846A3
:10353000FFF7A2FD042100F00BF82046FFF79CFDE9
:1035400007B030BDE0440258002002580024025861
:1035500001910122002103910491029201A9704777
:1035600010B58AB00C2200216846FFF700FD1C222E
:10357000002103A8FFF7FBFC374C4FF08040206090
:103580001421C7200022E0606160A2602261A26174
:10359000204600F0B9F808B1FFF752FD2021009154
:1035A000002202926946204600F06AFC08B1FFF74B
:1035B00047FD602103913222002104920591079179
:1035C000042203A9204600F001FA08B1FFF738FDF4
:1035D000204600F01CF80AB010BD0068B0F1804F22
:1035E00000D0704780B51D48016841F001010160BD
:1035F0000022006800F001000090002100981C20CB
:10360000FFF774FEBDE802401C20FFF78DBE10B529
:1036100086B004461422002101A8FFF7A8FC216807
:10362000B1F1804F16D10E48016841F002010160EE
:103630000821006800F0020000900222009809486A
:10364000019102920021039104910121059101A9A8
:10365000FFF712FD06B010BDC0080010E844025884
:10366000E04402580004025890F83D10012901D0AE
:1036700001207047022180F83D10DFF89C2101688D
:10368000914218BFB1F1804F17D0DFF890219142DD
:103690001CBFDFF88C3199420FD0DFF888219142AE
:1036A0001CBFDFF88431994207D0DFF880219142B6
:1036B0001CBFDFF87C31994209D18A68DFF88C1190
:1036C0000A40062A18BFB2F5803F05D001680A6893
:1036D000084642F001020260002070470220687034
:1036E000211D206800F0FFF9012028730121A97035
:1036F000E87029716871A971E87129726872A972FC
:10370000E8726970002032BD38B5040001D1012093
:1037100032BD00F0A1F818B900F0E1F9FFF75DFF44
:10372000DCE770B5044604F13E0009B902780FE009
:10373000042908BF42780BD0082908BF827807D037
:103740000C2908BFC27803D010290CBF0279427936
:10375000012A01D0012070BD11B90222027014E0CB
:10376000042902D1022242700FE0082902D102226C
:1037700082700AE00C2902D10222C27005E01029F1
:1037800007BF02220271022343712068012200F068
:1037900055FB00F03AF818BF904208D088421FBF8E
:1037A000DFF8AC50A842DFF8AC60B04203D1456C02
:1037B00045F4004545642068984218BFB0F1804F39
:1037C0000FD000F01FF81CBF154DA84209D000F023
:1037D00016F818BF904204D000F00EF818BF8842C7
:1037E00006D100F027F818BFB1F5803F02D020685D
:1037F00000F025F8002070BD0C4A90427047094B3C
:1038000098427047054B984270472068024B084920
:10381000054A984270470000000001400004004043
:1038200000080040000C0040000401400018004067
:103830000040014081680548014006297047016841
:10384000024641F0010111607047000007000100CD
:10385000004401400048014004F13C05687870478D
:1038600010B50446206801698A0715D5C1688A0722
:1038700012D56FF00201016101222277806910F0F8
:10388000030F204602D000F04BFB03E000F049FBA1
:1038900000F094F800202077206801694A0715D5C8
:1038A000C1684A0712D56FF0040101610222227734
:1038B000806910F4407F204602D000F031FB03E025
:1038C00000F02FFB00F07AF80020207720680169D3
:1038D0000A0715D5C1680A0712D56FF00801016102
:1038E00004222277C06910F0030F204602D000F0B6
:1038F00017FB03E000F015FB00F060F800202077D4
:1039000020680169CA0615D5C168CA0612D56FF0CC
:103910001001016108222277C06910F4407F20461F
:1039200002D000F0FDFA03E000F0FBFA00F046F8E8
:103930000020207720680169CA0708D5C168CA0736
:1039400005D56FF001010161204600F0EBFA206817
:1039500001690A0608D5C1680A0605D56FF080011D
:103960000161204600F0DFFA20680169CA0508D528
:10397000C1680A0605D56FF480710161204600F028
:10398000D3FA206801694A0608D5C1684A0605D5F8
:103990006FF040010161204600F0C7FA206801691C
:1039A0008A060AD5C1688A0607D56FF02001016131
:1039B0002046BDE8104000F0B9BA10BD204600F026
:1039C000B6BA002084F83C002846704770B500F075
:1039D0007FF801D1022070BD012084F83C0052B173
:1039E000042A19D0082A29D00C2A38D0102A48D005
:1039F000142A57D068E0206800F0CEF82168886962
:103A000040F008008861886920F0040088618A69B4
:103A1000306902438A6158E0206800F0FFF82068AE
:103A2000816941F400618161816921F48061816172
:103A30008169326941EA0221816146E0206800F033
:103A40002CF92168C86940F00800C861C86920F0F5
:103A50000400C861CA6930690243CA6135E0206860
:103A600000F054F92068C16941F40061C161C16985
:103A700021F48061C161C169326941EA0221C161F9
:103A800023E0206800F069F92168486D40F00800E3
:103A90004865486D20F0040048654A6D306902436E
:103AA0004A6512E0206800F083F92068416D41F416
:103AB00000614165416D21F480614165416D32696C
:103AC00041EA0221416500E00125FFF77AFF70BD60
:103AD0000446002594F83C0001280E46704700215A
:103AE0002970204670472DE9F043D0F800C0DFF878
:103AF0001C73DFF81C33DFF81C43DFF81C53DFF8BE
:103B00001C63DFF81CE3DFF81C83DFF81C93B8426A
:103B100018BFB0F1804F07D0484518BF404503D0CB
:103B2000704518BFB0420ED14A682CF0700C42EAC2
:103B30000C0CB84218BFB0F1804F0CD048451CBFE8
:103B40004045704507D0B04218BFA84203D0A042FC
:103B500018BF984204D1CA682CF4407C42EA0C0C8D
:103B60004A692CF0800C42EA0C0CC0F800C0B84244
:103B7000D1F808C0C0F82CC00A68826218BFB042F1
:103B800004D0A8421CBFA042984201D10969016338
:103B900001224261BDE8F0832DE9F041026ADFF8BD
:103BA0006C82DFF87072DFF870C2DFF870E25208E2
:103BB00052000262066A44688569DFF870220B6869
:103BC00015408A6826F002061D431643DFF840328E
:103BD000404518BF704504D060451CBFB8429842AC
:103BE0000DD1CA6826F00806164326F004064045A3
:103BF00018BF704505D0604518BFB84201D0984243
:103C000005D14B698A6924F440741C431443446011
:103C10008561496841630662BDE8F081F0B5026ADA
:103C200022F010020262056A43688469DFF800220C
:103C30000E6814408A6844EA062425F0200545EA07
:103C40000215DFF8C861DFF8D421B04218BF9042F6
:103C500008D1CF6825F0800545EA0715B04225F068
:103C600040050DD090421CBFDFF8AC21904207D038
:103C7000DFF8A061B0421CBFDFF89421904206D16A
:103C80004E698A6923F44063164343EA860343601E
:103C90008461496881630562F0BDF0B5026ADFF8AE
:103CA0008C3122F480720262066A4468C5690A682F
:103CB00026F400761D408B6846EA03261543534BD5
:103CC000564A984218BF904208D1CF6826F4006641
:103CD00046EA0726984226F480660AD090421CBF26
:103CE0004D4A904205D04B4B98421CBF484A9042E7
:103CF00006D14B698A6924F44054134344EA0314FF
:103D00004460C5614968C1630662F0BD70B5026A6E
:103D100022F480520262036A4468C569444A00F092
:103D20006EF823F4005343EA0233B0421CBF3B4A0F
:103D3000904207D0384EB0421FBF364A9042344EB0
:103D4000B04204D14A6924F4804444EA82144460B5
:103D5000C56149680164036270BD70B5026A354B84
:103D600022F480320262046A4568466D0A681E4089
:103D700016438B68254A24F4003444EA03449042F5
:103D80001CBF264B984207D0234A90421FBF214BAD
:103D900098421F4A904204D14A6925F4803545EA89
:103DA00002254560466549688165046270BD000072
:103DB00070B5026A22F480120262036A4468456D9B
:103DC0001D4A00F01CF823F4001343EA0253B042EA
:103DD0001CBF124A904207D00F4EB0421FBF0D4A7F
:103DE00090420B4EB04204D14A6924F4802444EA44
:103DF0008224446045654968C165036270BD0E68F0
:103E0000154045EA06258A68004E704700000140CB
:103E100000480140004401400040014000040140CE
:103E2000000C004000080040000400408CFFFEFF32
:103E3000FF8CFFFE8FFFFEFFFF8FFFFE10B501F02E
:103E40001F01036A01248C40A343036202FA01F1BB
:103E5000036A1943016210BD38B50446FDF724FB1F
:103E600014F1010F054602D0044801786418FDF7EB
:103E70001BFB401BA042FAD331BD00BF0000001065
:103E8000F0B500F13C042278012A01D10220F0BDF6
:103E900001222270022363700668DFF874E07768FD
:103EA000B568DFF870C0764518BF664503D14B682A
:103EB00027F470071F430A6827F0700717437760DD
:103EC0000268724518BFB2F1804F10D00F4882428D
:103ED0001CBF114B9A420AD00B48824218BF624560
:103EE00005D0084B9A421CBF0C48824204D1886816
:103EF00025F0800505439560012161700020207048
:103F0000F0BD000000180040000C0040000400401C
:103F10000000014000040140000800400040014052
:103F200070477047704770477047704770477047D9
:103F300030B4002512E050F8042BD30744BF4A44A4
:103F4000521E091F042942F8045BFAD213468C075B
:103F500044BF15809B1CC90748BF1D7050F8041B47
:103F60000029E8D130BC7047FEE7FEE7FEE7FEE738
:103F7000FEE770477047704700F00AB80248FCF748
:103F8000F3BC0248FFF76CBCE4070010C008001047
:103F90000248416802788A184260704700000010A9
:103FA0000448816F41F470018167026842F0100299
:103FB0000260704710ED00E0000000000102030401
:103FC000010203040607080910B5074979441831AE
:103FD000064C7C44163404E00A68081D11448847E6
:103FE0000146A142F8D110BD2C0000004C00000099
:103FF0004EF68851CEF20001086840F47000086067
:10400000BFF34F8FBFF36F8F4FF00170E1EE100AD7
:10401000704700001DFFFFFFF808000014000010AB
:10402000000000005FEFFFFF1400000070000000C0
:10403000000000100000000000F00DF8002801D082
:10404000FFF7C2FFAFF300800020AFF30080FEF760
:10405000ADFF00F002F80120704700F001B8000049
:104060000746384600F002F8FBE7000080B5AFF3E2
:104070000080024A11001820ABBEFBE726000200B8
:104080000548014603B4684680F30988AFF3008011
:10409000FFF7AEFFFFF7D0FFA5EDF5FE0100000032
:1040A00000000000100000000090D0030090D0033A
:1040B0000148804701480047A13F1008814010088F
:1040C000FFF7FEBFFFF7FEBFFFF7FEBFFFF7FEBF24
:1040D000FFF7FEBFFFF7FEBFFFF7FEBFFFF7FEBF14
:1040E000FFF7FEBFFFF7FEBFFFF7FEBFFFF7FEBF04
:1040F000FFF7FEBFFFF7FEBFFFF7FEBFFFF7FEBFF4
:04000005081040811E
:00000001FF
