:020000040810E2
:1000000018040010F90A1008C10A1008C30A1008E1
:10001000C50A1008C70A1008C90A10080000000025
:10002000000000000000000000000000CB0A1008E3
:10003000CD0A100800000000CF0A1008D10A1008ED
:10004000090B10080D0B1008110B1008150B1008E8
:10005000190B10081D0B1008210B1008250B100898
:10006000290B10082D0B1008310B1008350B100848
:10007000390B10083D0B1008410B1008450B1008F8
:10008000490B10084D0B1008510B1008550B1008A8
:10009000590B10085D0B1008610B1008650B100858
:1000A000690B10086D0B1008710B1008750B100808
:1000B000790B10087D0B1008810B1008850B1008B8
:1000C000890B10088D0B1008910B1008950B100868
:1000D000990B10089D0B1008A10B1008A50B100818
:1000E000A90B1008AD0B100800000000B10B1008A0
:1000F000B50B1008B90B1008BD0B1008C10B100888
:10010000C50B1008C90B1008CD0B1008D10B100837
:10011000D50B1008D90B1008DD0B1008E10B1008E7
:10012000E50B1008E90B1008ED0B1008F10B100897
:10013000F50B1008F90B1008FD0B1008010C100846
:10014000050C1008090C1008000000000000000059
:100150000D0C1008110C1008150C1008190C1008C3
:100160001D0C1008210C1008250C1008290C100873
:100170002D0C1008310C1008350C10080000000080
:10018000390C10083D0C1008410C1008450C1008E3
:10019000490C10084D0C1008510C1008550C100893
:1001A000590C10085D0C1008610C1008650C100843
:1001B000690C10086D0C1008710C1008750C1008F3
:1001C000790C10087D0C1008810C1008850C1008A3
:1001D000890C10088D0C1008910C1008950C100853
:1001E000990C10089D0C1008A10C1008A50C100803
:1001F000A90C1008AD0C1008B10C1008B50C1008B3
:10020000B90C1008BD0C1008C10C1008C50C100862
:10021000C90C1008CD0C1008D10C1008D50C100812
:10022000D90C1008DD0C1008E10C100800000000CB
:10023000E50C1008E90C1008ED0C1008F10C100882
:10024000F50C1008F90C1008FD0C1008010D100831
:10025000050D1008090D10080D0D1008110D1008DE
:10026000150D1008190D10081D0D1008210D10088E
:10027000250D1008290D10082D0D1008310D10083E
:10028000350D1008390D10083D0D10080000000054
:10029000410D1008450D10082DE9F84F0027DFF833
:1002A000EC21DFF8EC814FF0B04305460E463AE012
:1002B000DFF8E041A54214BF0A2409248C40DFF88E
:1002C000D81144EA0E0441F82C40C143D3F800C0D1
:1002D000746801EA0C0CE40248BF40EA0C0CC3F855
:1002E00000C0D3F804C0746801EA0C0CA40248BF33
:1002F00040EA0C0CC3F804C0D2F804C0746801EAE8
:100300000C0CA40348BF40EA0C0CC2F804C0D2F89D
:1003100000C001EA0C0C7168C90348BF40EA0C0C2C
:10032000C2F800C07F1C316831FA07F000F0AC80E1
:100330000124BC4014EA0100F4D04FEA470C032129
:1003400001FA0CF16FEA010E716801F00309B9F1CD
:10035000010F1CBF01F00301022912D1A968D6F8D0
:100360000C900EEA010109FA0CF949EA0101A960B1
:10037000696821EA04047168C1F30011B9400C43B3
:100380006C60B900347904F00304032C23D0EC68CA
:10039000D6F808900EEA040409FA0CF949EA0404B4
:1003A000EC60347904F00304022C14D1FC0805EB52
:1003B000840401F01C09D4F820A04FF00F0B0BFAB5
:1003C00009FB2AEA0B0AD6F810B00BFA09F949EA38
:1003D0000A09C4F820902C680EEA040E347904F05F
:1003E000030404FA0CF444EA0E0CC5F800C0746867
:1003F00014F4403F96D0D8F800C0274C4CF0020CC3
:10040000C8F800C04FEA970CD8F800E00EF0020ED2
:10041000CDF800E001F00C01DDF800E054F82C40CC
:100420004FF00F0E0EFA01FE24EA0E0E1B4CA542F1
:1004300008BF002427D01A4CA54208BF012422D0AF
:10044000184CA54208BF02241DD0174CA54208BF76
:10045000032418D0154CA54208BF042413D0144C13
:10046000A54208BF05240ED0124CA54208BF0624A1
:1004700009D0114CA54208BF072404D00F4CA54257
:100480007FF416AF082419E7BDE8F18FC0000058CB
:10049000F44402580024025808040058000002588E
:1004A0000004025800080258000C025800100258BC
:1004B0000014025800180258001C0258002002586C
:1004C00030B54E4B4E48196911F0380104D010294F
:1004D0000AD018290AD07EE01A6891067CD51968DE
:1004E000C1F3C101C84030BD464830BD9C6A996A1D
:1004F000DD6A5A6B05F00105C2F3CC02C1F30511A8
:10050000554300EE105A0029B8EE400A61D000EEC3
:10051000901A14F00304F8EE600A03D0022C25D0E0
:100520001FD337E019689FED311A8A0620EE010AC1
:1005300008D51968C1F3C101C84000F051F8C1EEF7
:10054000200A03E09FED2A2AC2EE200A00F045F8B7
:1005500031EE000AF7EE001A70EE211A20EEA10A21
:1005600028E09FED242AC2EE200A17E0186B9FEDC9
:10057000221AC0F30800C1EE200A01EE900AF8EE3C
:10058000611A9FED1A1A40EE011AB7EE000A31EE19
:10059000800A0DE0DFED171AC1EEA00A00F01DF889
:1005A000DFED121A00EE211AB7EE000A31EE000A52
:1005B00020EE800A186BC0F34620401C00EE900A23
:1005C000F8EE600A80EE200ABCEEC00A10EE100AB7
:1005D00030BD002030BD0C4830BD186BC0F30800A2
:1005E00001EE100AB8EE411A704700000000003911
:1005F0000024744C0024744A20BCBE4B00440258B2
:100600000090D00340787D0100093D0009010200FF
:1006100002D4284881547047274B02F00F021A4435
:1006200002F8041C7047254B19684FF6FF020002C0
:10063000114000F4E0600843214908431860704706
:1006400070B51E4B1C68C4F302230124C3F10705D7
:10065000052D2EBF0F2504FA05F56D1E1E1D072E54
:1006600034BF0023DB1E2940994004FA03F3BDE8A0
:1006700070405B1E1A401143C8E70000401EB0F1F5
:10068000807F01D3012070470E490F4A4860002344
:10069000F02010708B6007200860002070470B4826
:1006A0000168C1F30310072801D10320704701201E
:1006B0007047000000E400E018ED00E00CED00E001
:1006C0000000FA0510E000E023ED00E000ED00E09E
:1006D00070B5DFF88860DFF888500C46316849084B
:1006E00040EA4100306042B9FFF7D9FF03282CD11E
:1006F000306940084000306109E0012A18D1FFF755
:10070000CEFF012821D1706920F0020070612968B4
:1007100041F004012960BFF34F8FBFF36F8F012CAD
:100720000CBF30BF20BF286820F00400286070BDD7
:10073000FFF7B5FF032804D1306920F004003061D1
:1007400070BD706920F00400706170BD80B5FFF766
:10075000A6FF032818BF40BF20BF01BD00480258B4
:1007600010ED00E080B5DFF87000016841F48041D1
:1007700001608121006800F4804000900098DFF85B
:100780005C00026861F313220260036843F0010316
:1007900003600320FFF747FFFFF792FE1049114B5C
:1007A0000A680968C2F3032201F00F019A5C595CE0
:1007B0000D4B02F01F02D04001F01F010B4AC84050
:1007C00010601860002000F013F808B1012002BD8D
:1007D00000F030F8002002BDD84402580044024026
:1007E00018440258EC091008100000100C0000100A
:1007F00038B50E4D04462878A8B10D4A13684FF459
:100800007A71B1FBF0F0B3FBF0F0FFF737FF50B9AE
:10081000102C08D2002221464FF0FF30FFF710FFC6
:10082000AC60002032BD012032BD00BF00000010CE
:100830000C000010064881B0016841F0020101601F
:10084000006800F002000090009801B0704700BFFF
:10085000F444025862F30F2262F31F42401810F072
:10086000030308D0C91A1FD3DB0748BF00F8012DC6
:1008700028BF20F8022D130030B414461546103955
:1008800028BF20E93C00FAD8490728BF20E90C001E
:1008900048BF40F8042D890028BF20F8022D48BF2A
:1008A00000F8012D30BC7047C91818BF00F8012DA1
:1008B000CB0728BF00F8012D70470EE0026843689F
:1008C000024408305FEAC37C44BF4B445B1E52F8CD
:1008D00004CB43F804CB091FF9D150F8041B0029BD
:1008E000ECD1704780B51548016841F00071016096
:1008F000006800F0007000900098012000F024F8DB
:10090000FFF724FF012202210020FFF7E1FE0C493E
:100910000C480A68C2F30311072904D1016841F0A9
:100920000101016003E0016941F001010161FFF78C
:1009300019FF00F011F800F033F8FEE7E044025828
:1009400000ED00E00465025802490A68104308609F
:10095000704700001065025880B586B0142200214F
:1009600001A800F02DF80C48016841F01001016069
:100970003021006800F01000009002220098074823
:10098000019102920021039104910A21059101A98C
:10099000FFF782FC07B000BDE04402580010025887
:1009A000064881B0016841F001010160006800F073
:1009B00001000090009801B0704700BFD844025871
:1009C00010B5044610460A4601462046FFF742FF8E
:1009D000204610BD0448816F41F4700181670268B0
:1009E00042F010020260704710ED00E000000000CD
:1009F00001020304010203040607080910B50749B0
:100A000079441831064C7C44163404E00A68081D09
:100A1000114488470146A142F8D110BD2C000000C6
:100A20003C0000004EF68851CEF20001086840F408
:100A300070000860BFF34F8FBFF36F8F4FF00170EE
:100A4000E1EE100A7047000073FEFFFF1400000083
:100A500094000000000000100000000000F00DF8FD
:100A6000002801D0FFF7CAFFAFF300800020AFF3EA
:100A70000080FFF737FF00F002F80120704700F018
:100A800001B800000746384600F002F8FBE7000016
:100A900080B5AFF30080024A11001820ABBEFBE71F
:100AA000260002000548014603B4684680F3098821
:100AB000AFF30080FFF7B6FFFFF7D0FFA5EDF5FE1F
:100AC000FEE7FEE7FEE7FEE7FEE770477047704788
:100AD00000F000B80248416802788A184260704706
:100AE00000000010010000000000000010000000E5
:100AF0000090D0030090D003014880470148004790
:100B0000D5091008A50A1008FFF7FEBFFFF7FEBFC2
:100B1000FFF7FEBFFFF7FEBFFFF7FEBFFFF7FEBF09
:100B2000FFF7FEBFFFF7FEBFFFF7FEBFFFF7FEBFF9
:100B3000FFF7FEBFFFF7FEBFFFF7FEBFFFF7FEBFE9
:100B4000FFF7FEBFFFF7FEBFFFF7FEBFFFF7FEBFD9
:0400000508100AA530
:00000001FF
